{
  "contractName": "ENSRegistrar",
  "abi": [
    {
      "anonymous": false,
      "inputs": [
        {
          "indexed": true,
          "internalType": "address",
          "name": "series",
          "type": "address"
        },
        {
          "indexed": false,
          "internalType": "string",
          "name": "value",
          "type": "string"
        }
      ],
      "name": "NameClaimed",
      "type": "event"
    },
    {
      "anonymous": false,
      "inputs": [
        {
          "indexed": true,
          "internalType": "address",
          "name": "previousOwner",
          "type": "address"
        },
        {
          "indexed": true,
          "internalType": "address",
          "name": "newOwner",
          "type": "address"
        }
      ],
      "name": "OwnershipTransferred",
      "type": "event"
    },
    {
      "inputs": [],
      "name": "owner",
      "outputs": [
        {
          "internalType": "address",
          "name": "",
          "type": "address"
        }
      ],
      "stateMutability": "view",
      "type": "function"
    },
    {
      "inputs": [],
      "name": "renounceOwnership",
      "outputs": [],
      "stateMutability": "nonpayable",
      "type": "function"
    },
    {
      "inputs": [
        {
          "internalType": "address",
          "name": "newOwner",
          "type": "address"
        }
      ],
      "name": "transferOwnership",
      "outputs": [],
      "stateMutability": "nonpayable",
      "type": "function"
    },
    {
      "inputs": [
        {
          "internalType": "contract ENS",
          "name": "ensAddr",
          "type": "address"
        },
        {
          "internalType": "contract Resolver",
          "name": "resolverAddr",
          "type": "address"
        },
        {
          "internalType": "bytes32",
          "name": "node",
          "type": "bytes32"
        },
        {
          "internalType": "address[]",
          "name": "previousSeries",
          "type": "address[]"
        },
        {
          "internalType": "bytes32[]",
          "name": "previousDomains",
          "type": "bytes32[]"
        }
      ],
      "name": "initialize",
      "outputs": [],
      "stateMutability": "nonpayable",
      "type": "function"
    },
    {
      "inputs": [
        {
          "internalType": "bytes32",
          "name": "label",
          "type": "bytes32"
        },
        {
          "internalType": "address",
          "name": "owner",
          "type": "address"
        },
        {
          "internalType": "address",
          "name": "addr",
          "type": "address"
        }
      ],
      "name": "register",
      "outputs": [],
      "stateMutability": "nonpayable",
      "type": "function"
    },
    {
      "inputs": [
        {
          "internalType": "string",
          "name": "domain",
          "type": "string"
        },
        {
          "internalType": "contract OwnableUpgradeable",
          "name": "target",
          "type": "address"
        },
        {
          "internalType": "address",
          "name": "addr",
          "type": "address"
        }
      ],
      "name": "registerAndStore",
      "outputs": [],
      "stateMutability": "nonpayable",
      "type": "function"
    },
    {
      "inputs": [
        {
          "internalType": "address",
          "name": "addr",
          "type": "address"
        },
        {
          "internalType": "uint8",
          "name": "index",
          "type": "uint8"
        }
      ],
      "name": "resolve",
      "outputs": [
        {
          "internalType": "string",
          "name": "",
          "type": "string"
        }
      ],
      "stateMutability": "view",
      "type": "function"
    },
    {
      "inputs": [
        {
          "internalType": "address",
          "name": "addr",
          "type": "address"
        }
      ],
      "name": "ownedDomains",
      "outputs": [
        {
          "internalType": "uint256",
          "name": "",
          "type": "uint256"
        }
      ],
      "stateMutability": "view",
      "type": "function"
    },
    {
      "inputs": [
        {
          "internalType": "bytes32",
          "name": "_bytes32",
          "type": "bytes32"
        }
      ],
      "name": "bytes32ToString",
      "outputs": [
        {
          "internalType": "string",
          "name": "",
          "type": "string"
        }
      ],
      "stateMutability": "pure",
      "type": "function"
    }
  ],
  "bytecode": "0x608060405234801561001057600080fd5b50611ef3806100206000396000f3fe608060405234801561001057600080fd5b50600436106100935760003560e01c80638da5cb5b116100665780638da5cb5b1461011e5780639201de551461013c578063dc2064861461016c578063e5fc1f6c14610188578063f2fde38b146101a457610093565b80630edcfb70146100985780635d322f9f146100c8578063715018a6146100e4578063754b6d3f146100ee575b600080fd5b6100b260048036038101906100ad919061150f565b6101c0565b6040516100bf9190611b52565b60405180910390f35b6100e260048036038101906100dd9190611615565b61020c565b005b6100ec6104ff565b005b61010860048036038101906101039190611561565b610587565b6040516101159190611a90565b60405180910390f35b61012661069e565b60405161013391906119de565b60405180910390f35b6101566004803603810190610151919061159d565b6106c8565b6040516101639190611a90565b60405180910390f35b610186600480360381019061018191906116c5565b610921565b005b6101a2600480360381019061019d91906115c6565b610b11565b005b6101be60048036038101906101b9919061150f565b610e6c565b005b6000606860008373ffffffffffffffffffffffffffffffffffffffff1673ffffffffffffffffffffffffffffffffffffffff168152602001908152602001600020805490509050919050565b818190508484905014610254576040517f08c379a000000000000000000000000000000000000000000000000000000000815260040161024b90611b32565b60405180910390fd5b61025c610f64565b86606560006101000a81548173ffffffffffffffffffffffffffffffffffffffff021916908373ffffffffffffffffffffffffffffffffffffffff1602179055508460668190555085606760006101000a81548173ffffffffffffffffffffffffffffffffffffffff021916908373ffffffffffffffffffffffffffffffffffffffff16021790555060005b848490508110156104f55784848281811061032c577f4e487b7100000000000000000000000000000000000000000000000000000000600052603260045260246000fd5b9050602002016020810190610341919061150f565b73ffffffffffffffffffffffffffffffffffffffff167f9b15f899d7d0612a57fe7cbb7161c378e987fa2c3ade807d80b8c3bb1771dd2b6103c08585858181106103b4577f4e487b7100000000000000000000000000000000000000000000000000000000600052603260045260246000fd5b905060200201356106c8565b6040516103cd9190611a90565b60405180910390a260686000868684818110610412577f4e487b7100000000000000000000000000000000000000000000000000000000600052603260045260246000fd5b9050602002016020810190610427919061150f565b73ffffffffffffffffffffffffffffffffffffffff1673ffffffffffffffffffffffffffffffffffffffff1681526020019081526020016000206104a984848481811061049d577f4e487b7100000000000000000000000000000000000000000000000000000000600052603260045260246000fd5b905060200201356106c8565b9080600181540180825580915050600190039060005260206000200160009091909190915090805190602001906104e19291906112dd565b5080806104ed90611d18565b9150506102e8565b5050505050505050565b61050761104d565b73ffffffffffffffffffffffffffffffffffffffff1661052561069e565b73ffffffffffffffffffffffffffffffffffffffff161461057b576040517f08c379a000000000000000000000000000000000000000000000000000000000815260040161057290611b12565b60405180910390fd5b6105856000611055565b565b6060606860008473ffffffffffffffffffffffffffffffffffffffff1673ffffffffffffffffffffffffffffffffffffffff1681526020019081526020016000208260ff1681548110610603577f4e487b7100000000000000000000000000000000000000000000000000000000600052603260045260246000fd5b90600052602060002001805461061890611ce6565b80601f016020809104026020016040519081016040528092919081815260200182805461064490611ce6565b80156106915780601f1061066657610100808354040283529160200191610691565b820191906000526020600020905b81548152906001019060200180831161067457829003601f168201915b5050505050905092915050565b6000603360009054906101000a900473ffffffffffffffffffffffffffffffffffffffff16905090565b606060005b60208160ff161080156107455750600060f81b838260ff166020811061071c577f4e487b7100000000000000000000000000000000000000000000000000000000600052603260045260246000fd5b1a60f81b7effffffffffffffffffffffffffffffffffffffffffffffffffffffffffffff191614155b1561075d57808061075590611d61565b9150506106cd565b60008160ff1667ffffffffffffffff8111156107a2577f4e487b7100000000000000000000000000000000000000000000000000000000600052604160045260246000fd5b6040519080825280601f01601f1916602001820160405280156107d45781602001600182028036833780820191505090505b509050600091505b60208260ff161080156108545750600060f81b848360ff166020811061082b577f4e487b7100000000000000000000000000000000000000000000000000000000600052603260045260246000fd5b1a60f81b7effffffffffffffffffffffffffffffffffffffffffffffffffffffffffffff191614155b1561091757838260ff1660208110610895577f4e487b7100000000000000000000000000000000000000000000000000000000600052603260045260246000fd5b1a60f81b818360ff16815181106108d5577f4e487b7100000000000000000000000000000000000000000000000000000000600052603260045260246000fd5b60200101907effffffffffffffffffffffffffffffffffffffffffffffffffffffffffffff1916908160001a905350818061090f90611d61565b9250506107dc565b8092505050919050565b813373ffffffffffffffffffffffffffffffffffffffff168173ffffffffffffffffffffffffffffffffffffffff16638da5cb5b6040518163ffffffff1660e01b815260040160206040518083038186803b15801561097f57600080fd5b505afa158015610993573d6000803e3d6000fd5b505050506040513d601f19601f820116820180604052508101906109b79190611538565b73ffffffffffffffffffffffffffffffffffffffff1614610a0d576040517f08c379a0000000000000000000000000000000000000000000000000000000008152600401610a0490611ad2565b60405180910390fd5b600084604051602001610a2091906119c7565b604051602081830303815290604052805190602001209050610a43813385610b11565b606860008573ffffffffffffffffffffffffffffffffffffffff1673ffffffffffffffffffffffffffffffffffffffff16815260200190815260200160002085908060018154018082558091505060019003906000526020600020016000909190919091509080519060200190610abb9291906112dd565b508373ffffffffffffffffffffffffffffffffffffffff167f9b15f899d7d0612a57fe7cbb7161c378e987fa2c3ade807d80b8c3bb1771dd2b86604051610b029190611a90565b60405180910390a25050505050565b826000606560009054906101000a900473ffffffffffffffffffffffffffffffffffffffff1673ffffffffffffffffffffffffffffffffffffffff166302571be360665484604051602001610b6792919061199b565b604051602081830303815290604052805190602001206040518263ffffffff1660e01b8152600401610b9991906119f9565b60206040518083038186803b158015610bb157600080fd5b505afa158015610bc5573d6000803e3d6000fd5b505050506040513d601f19601f82011682018060405250810190610be99190611538565b9050600073ffffffffffffffffffffffffffffffffffffffff168173ffffffffffffffffffffffffffffffffffffffff161480610c5157503373ffffffffffffffffffffffffffffffffffffffff168173ffffffffffffffffffffffffffffffffffffffff16145b610c5a57600080fd5b600060665486604051602001610c7192919061199b565b604051602081830303815290604052805190602001209050606560009054906101000a900473ffffffffffffffffffffffffffffffffffffffff1673ffffffffffffffffffffffffffffffffffffffff16635ef2c7f06066548830606760009054906101000a900473ffffffffffffffffffffffffffffffffffffffff166303c267006040518663ffffffff1660e01b8152600401610d14959493929190611a3d565b600060405180830381600087803b158015610d2e57600080fd5b505af1158015610d42573d6000803e3d6000fd5b50505050606760009054906101000a900473ffffffffffffffffffffffffffffffffffffffff1673ffffffffffffffffffffffffffffffffffffffff1663d5fa2b0082866040518363ffffffff1660e01b8152600401610da3929190611a14565b600060405180830381600087803b158015610dbd57600080fd5b505af1158015610dd1573d6000803e3d6000fd5b50505050606560009054906101000a900473ffffffffffffffffffffffffffffffffffffffff1673ffffffffffffffffffffffffffffffffffffffff16635b0fc9c382876040518363ffffffff1660e01b8152600401610e32929190611a14565b600060405180830381600087803b158015610e4c57600080fd5b505af1158015610e60573d6000803e3d6000fd5b50505050505050505050565b610e7461104d565b73ffffffffffffffffffffffffffffffffffffffff16610e9261069e565b73ffffffffffffffffffffffffffffffffffffffff1614610ee8576040517f08c379a0000000000000000000000000000000000000000000000000000000008152600401610edf90611b12565b60405180910390fd5b600073ffffffffffffffffffffffffffffffffffffffff168173ffffffffffffffffffffffffffffffffffffffff161415610f58576040517f08c379a0000000000000000000000000000000000000000000000000000000008152600401610f4f90611ab2565b60405180910390fd5b610f6181611055565b50565b600060019054906101000a900460ff1680610f8a575060008054906101000a900460ff16155b610fc9576040517f08c379a0000000000000000000000000000000000000000000000000000000008152600401610fc090611af2565b60405180910390fd5b60008060019054906101000a900460ff161590508015611019576001600060016101000a81548160ff02191690831515021790555060016000806101000a81548160ff0219169083151502179055505b61102161111b565b6110296111f4565b801561104a5760008060016101000a81548160ff0219169083151502179055505b50565b600033905090565b6000603360009054906101000a900473ffffffffffffffffffffffffffffffffffffffff16905081603360006101000a81548173ffffffffffffffffffffffffffffffffffffffff021916908373ffffffffffffffffffffffffffffffffffffffff1602179055508173ffffffffffffffffffffffffffffffffffffffff168173ffffffffffffffffffffffffffffffffffffffff167f8be0079c531659141344cd1fd0a4f28419497f9722a3daafe3b4186f6b6457e060405160405180910390a35050565b600060019054906101000a900460ff1680611141575060008054906101000a900460ff16155b611180576040517f08c379a000000000000000000000000000000000000000000000000000000000815260040161117790611af2565b60405180910390fd5b60008060019054906101000a900460ff1615905080156111d0576001600060016101000a81548160ff02191690831515021790555060016000806101000a81548160ff0219169083151502179055505b80156111f15760008060016101000a81548160ff0219169083151502179055505b50565b600060019054906101000a900460ff168061121a575060008054906101000a900460ff16155b611259576040517f08c379a000000000000000000000000000000000000000000000000000000000815260040161125090611af2565b60405180910390fd5b60008060019054906101000a900460ff1615905080156112a9576001600060016101000a81548160ff02191690831515021790555060016000806101000a81548160ff0219169083151502179055505b6112b96112b461104d565b611055565b80156112da5760008060016101000a81548160ff0219169083151502179055505b50565b8280546112e990611ce6565b90600052602060002090601f01602090048101928261130b5760008555611352565b82601f1061132457805160ff1916838001178555611352565b82800160010185558215611352579182015b82811115611351578251825591602001919060010190611336565b5b50905061135f9190611363565b5090565b5b8082111561137c576000816000905550600101611364565b5090565b600061139361138e84611b9e565b611b6d565b9050828152602081018484840111156113ab57600080fd5b6113b6848285611ca4565b509392505050565b6000813590506113cd81611e33565b92915050565b6000815190506113e281611e33565b92915050565b60008083601f8401126113fa57600080fd5b8235905067ffffffffffffffff81111561141357600080fd5b60208301915083602082028301111561142b57600080fd5b9250929050565b60008083601f84011261144457600080fd5b8235905067ffffffffffffffff81111561145d57600080fd5b60208301915083602082028301111561147557600080fd5b9250929050565b60008135905061148b81611e4a565b92915050565b6000813590506114a081611e61565b92915050565b6000813590506114b581611e78565b92915050565b6000813590506114ca81611e8f565b92915050565b600082601f8301126114e157600080fd5b81356114f1848260208601611380565b91505092915050565b60008135905061150981611ea6565b92915050565b60006020828403121561152157600080fd5b600061152f848285016113be565b91505092915050565b60006020828403121561154a57600080fd5b6000611558848285016113d3565b91505092915050565b6000806040838503121561157457600080fd5b6000611582858286016113be565b9250506020611593858286016114fa565b9150509250929050565b6000602082840312156115af57600080fd5b60006115bd8482850161147c565b91505092915050565b6000806000606084860312156115db57600080fd5b60006115e98682870161147c565b93505060206115fa868287016113be565b925050604061160b868287016113be565b9150509250925092565b600080600080600080600060a0888a03121561163057600080fd5b600061163e8a828b01611491565b975050602061164f8a828b016114bb565b96505060406116608a828b0161147c565b955050606088013567ffffffffffffffff81111561167d57600080fd5b6116898a828b016113e8565b9450945050608088013567ffffffffffffffff8111156116a857600080fd5b6116b48a828b01611432565b925092505092959891949750929550565b6000806000606084860312156116da57600080fd5b600084013567ffffffffffffffff8111156116f457600080fd5b611700868287016114d0565b9350506020611711868287016114a6565b9250506040611722868287016113be565b9150509250925092565b61173581611bf5565b82525050565b61174481611c07565b82525050565b61175b61175682611c07565b611d8b565b82525050565b61176a81611c92565b82525050565b600061177b82611bce565b6117858185611bd9565b9350611795818560208601611cb3565b61179e81611e22565b840191505092915050565b60006117b482611bce565b6117be8185611bea565b93506117ce818560208601611cb3565b80840191505092915050565b60006117e7602683611bd9565b91507f4f776e61626c653a206e6577206f776e657220697320746865207a65726f206160008301527f64647265737300000000000000000000000000000000000000000000000000006020830152604082019050919050565b600061184d601783611bd9565b91507f4e6f742074686520736572696573206d616e616765722e0000000000000000006000830152602082019050919050565b600061188d602e83611bd9565b91507f496e697469616c697a61626c653a20636f6e747261637420697320616c72656160008301527f647920696e697469616c697a65640000000000000000000000000000000000006020830152604082019050919050565b60006118f3602083611bd9565b91507f4f776e61626c653a2063616c6c6572206973206e6f7420746865206f776e65726000830152602082019050919050565b6000611933603983611bd9565b91507f50726576696f7573207365726965732073697a6520646966666572656e74207460008301527f68616e2070726576696f757320746f6b656e732073697a652e000000000000006020830152604082019050919050565b61199581611c67565b82525050565b60006119a7828561174a565b6020820191506119b7828461174a565b6020820191508190509392505050565b60006119d382846117a9565b915081905092915050565b60006020820190506119f3600083018461172c565b92915050565b6000602082019050611a0e600083018461173b565b92915050565b6000604082019050611a29600083018561173b565b611a36602083018461172c565b9392505050565b600060a082019050611a52600083018861173b565b611a5f602083018761173b565b611a6c604083018661172c565b611a79606083018561172c565b611a866080830184611761565b9695505050505050565b60006020820190508181036000830152611aaa8184611770565b905092915050565b60006020820190508181036000830152611acb816117da565b9050919050565b60006020820190508181036000830152611aeb81611840565b9050919050565b60006020820190508181036000830152611b0b81611880565b9050919050565b60006020820190508181036000830152611b2b816118e6565b9050919050565b60006020820190508181036000830152611b4b81611926565b9050919050565b6000602082019050611b67600083018461198c565b92915050565b6000604051905081810181811067ffffffffffffffff82111715611b9457611b93611df3565b5b8060405250919050565b600067ffffffffffffffff821115611bb957611bb8611df3565b5b601f19601f8301169050602081019050919050565b600081519050919050565b600082825260208201905092915050565b600081905092915050565b6000611c0082611c47565b9050919050565b6000819050919050565b6000611c1c82611bf5565b9050919050565b6000611c2e82611bf5565b9050919050565b6000611c4082611bf5565b9050919050565b600073ffffffffffffffffffffffffffffffffffffffff82169050919050565b6000819050919050565b600067ffffffffffffffff82169050919050565b600060ff82169050919050565b6000611c9d82611c71565b9050919050565b82818337600083830152505050565b60005b83811015611cd1578082015181840152602081019050611cb6565b83811115611ce0576000848401525b50505050565b60006002820490506001821680611cfe57607f821691505b60208210811415611d1257611d11611dc4565b5b50919050565b6000611d2382611c67565b91507fffffffffffffffffffffffffffffffffffffffffffffffffffffffffffffffff821415611d5657611d55611d95565b5b600182019050919050565b6000611d6c82611c85565b915060ff821415611d8057611d7f611d95565b5b600182019050919050565b6000819050919050565b7f4e487b7100000000000000000000000000000000000000000000000000000000600052601160045260246000fd5b7f4e487b7100000000000000000000000000000000000000000000000000000000600052602260045260246000fd5b7f4e487b7100000000000000000000000000000000000000000000000000000000600052604160045260246000fd5b6000601f19601f8301169050919050565b611e3c81611bf5565b8114611e4757600080fd5b50565b611e5381611c07565b8114611e5e57600080fd5b50565b611e6a81611c11565b8114611e7557600080fd5b50565b611e8181611c23565b8114611e8c57600080fd5b50565b611e9881611c35565b8114611ea357600080fd5b50565b611eaf81611c85565b8114611eba57600080fd5b5056fea264697066735822122034e5baa3a446570829cb17c8fc559d947eb34b1f6cc6ce2a0515ca9badc4315264736f6c63430008000033",
  "immutableReferences": {},
  "source": "// SPDX-License-Identifier: UNLICENSED\npragma solidity 0.8.0;\n\nimport '@openzeppelin/contracts-upgradeable/access/OwnableUpgradeable.sol';\nimport '@openzeppelin/contracts-upgradeable/proxy/utils/Initializable.sol';\n\ninterface ENS {\n    function setSubnodeRecord(bytes32 node_, bytes32 label_, address owner_, address resolver_, uint64 ttl_) external;\n    function setSubnodeOwner(bytes32 node_, bytes32 label_, address owner_) external returns(bytes32);\n    function setOwner(bytes32 node_, address owner_) external;\n    function owner(bytes32 node_) external view returns (address);\n}\n\ninterface Resolver{\n    function setAddr(bytes32 node_, address addr_) external;\n    function setAddr(bytes32 node_, uint coinType_, bytes calldata a_) external;\n}\n\n\n/**\n * A registrar that allocates subdomains to the first person to claim them.\n */\ncontract ENSRegistrar is Initializable, OwnableUpgradeable {\n\n    event NameClaimed(address indexed series, string value);\n\n    // Master ENS registry\n    ENS ens;\n    // The otoco.eth node reference\n    bytes32 rootNode;\n    // Default resolver to deal with data storage\n    Resolver defaultResolver;\n    // Mapping of Company address => Domains\n    mapping(address => string[]) internal seriesDomains;\n\n    modifier only_owner(bytes32 label) {\n        address currentOwner = ens.owner(keccak256(abi.encodePacked(rootNode, label)));\n        require(currentOwner == address(0x0) || currentOwner == msg.sender);\n        _;\n    }\n    \n    modifier only_series_manager(OwnableUpgradeable series) {\n        require(series.owner() == msg.sender, 'Not the series manager.');\n        _;\n    }\n\n    /**\n     * Constructor.\n     * @param ensAddr The address of the ENS registry.\n     * @param resolverAddr The resolver where domains will use to register.\n     * @param node The node that this registrar administers.\n     * @param previousSeries Previous series to be migrated.\n     * @param previousDomains Previous domains to be migrated.\n     */\n    function initialize(ENS ensAddr, Resolver resolverAddr, bytes32 node, address[] calldata previousSeries, bytes32[] calldata previousDomains) external {\n        require(previousSeries.length == previousDomains.length, 'Previous series size different than previous tokens size.');\n        __Ownable_init();\n        ens = ensAddr;\n        rootNode = node;\n        defaultResolver = resolverAddr;\n        for (uint i = 0; i < previousSeries.length; i++ ) {\n            emit NameClaimed(previousSeries[i], bytes32ToString(previousDomains[i]));\n            seriesDomains[previousSeries[i]].push(bytes32ToString(previousDomains[i]));\n        }\n    }\n\n    /**\n     * Register a name, or change the owner of an existing registration.\n     * @param label The hash of the label to register.\n     * @param owner The address of the new owner(Series Manager).\n     * @param addr Address to redirect domain\n     */\n    function register(bytes32 label, address owner, address addr) public only_owner(label) {\n        bytes32 node = keccak256(abi.encodePacked(rootNode, label));\n        ens.setSubnodeRecord(rootNode, label, address(this), address(defaultResolver) ,63072000);\n        defaultResolver.setAddr(node, addr);\n        ens.setOwner(node, owner);\n    }\n\n    /**\n     * Register a name, and store the domain to reverse lookup.\n     * @param domain The string containing the domain.\n     * @param target Series contract that registry will point.\n     * @param addr Address to redirect domain\n     */\n    function registerAndStore(string memory domain, OwnableUpgradeable target, address addr) public only_series_manager(target) {\n        bytes32 label = keccak256(abi.encodePacked(domain));\n        register(label, msg.sender, addr);\n        seriesDomains[address(target)].push(domain);\n        emit NameClaimed(address(target), domain);\n    }\n\n    /**\n     * Return some domain from a series. As a single series could claim multiple domains,\n     * the resolve function here has a index parameter to point a specific domain to be retrieved.\n     * @param addr The string containing the domain.\n     * @param index Domain index to be retrieved.\n     */\n    function resolve(address addr, uint8 index) public view returns(string memory) {\n        return seriesDomains[addr][index];\n    }\n\n    /**\n     * Return how much domains the Series has registered using this Registrar.\n     * @param addr The string containing the series address.\n     */\n    function ownedDomains(address addr) public view returns(uint) {\n        return seriesDomains[addr].length;\n    }\n\n    function bytes32ToString(bytes32 _bytes32) public pure returns (string memory) {\n        uint8 i = 0;\n        while(i < 32 && _bytes32[i] != 0) {\n            i++;\n        }\n        bytes memory bytesArray = new bytes(i);\n        for (i = 0; i < 32 && _bytes32[i] != 0; i++) {\n            bytesArray[i] = _bytes32[i];\n        }\n        return string(bytesArray);\n    }\n}",
  "sourcePath": "/Users/filipemsoccol/Documents/doiim/otoco-smart-contracts/contracts/ENSRegistrar.sol",
  "compiler": {
    "name": "solc",
    "version": "0.8.0+commit.c7dfd78e.Emscripten.clang"
  },
  "schemaVersion": "3.4.0",
  "updatedAt": "2021-09-29T19:40:53.525Z",
  "devdoc": {
    "kind": "dev",
    "methods": {
      "initialize(address,address,bytes32,address[],bytes32[])": {
        "params": {
          "ensAddr": "The address of the ENS registry.",
          "node": "The node that this registrar administers.",
          "previousDomains": "Previous domains to be migrated.",
          "previousSeries": "Previous series to be migrated.",
          "resolverAddr": "The resolver where domains will use to register."
        }
      },
      "ownedDomains(address)": {
        "params": {
          "addr": "The string containing the series address."
        }
      },
      "owner()": {
        "details": "Returns the address of the current owner."
      },
      "register(bytes32,address,address)": {
        "params": {
          "addr": "Address to redirect domain",
          "label": "The hash of the label to register.",
          "owner": "The address of the new owner(Series Manager)."
        }
      },
      "registerAndStore(string,address,address)": {
        "params": {
          "addr": "Address to redirect domain",
          "domain": "The string containing the domain.",
          "target": "Series contract that registry will point."
        }
      },
      "renounceOwnership()": {
        "details": "Leaves the contract without owner. It will not be possible to call `onlyOwner` functions anymore. Can only be called by the current owner. NOTE: Renouncing ownership will leave the contract without an owner, thereby removing any functionality that is only available to the owner."
      },
      "resolve(address,uint8)": {
        "params": {
          "addr": "The string containing the domain.",
          "index": "Domain index to be retrieved."
        }
      },
      "transferOwnership(address)": {
        "details": "Transfers ownership of the contract to a new account (`newOwner`). Can only be called by the current owner."
      }
    },
    "version": 1
  },
  "userdoc": {
    "kind": "user",
    "methods": {
      "initialize(address,address,bytes32,address[],bytes32[])": {
        "notice": "Constructor."
      },
      "ownedDomains(address)": {
        "notice": "Return how much domains the Series has registered using this Registrar."
      },
      "register(bytes32,address,address)": {
        "notice": "Register a name, or change the owner of an existing registration."
      },
      "registerAndStore(string,address,address)": {
        "notice": "Register a name, and store the domain to reverse lookup."
      },
      "resolve(address,uint8)": {
        "notice": "Return some domain from a series. As a single series could claim multiple domains, the resolve function here has a index parameter to point a specific domain to be retrieved."
      }
    },
    "notice": "A registrar that allocates subdomains to the first person to claim them.",
    "version": 1
  }
}