{
  "contractName": "MasterRegistry",
  "abi": [
    {
      "anonymous": false,
      "inputs": [
        {
          "indexed": true,
          "internalType": "address",
          "name": "series",
          "type": "address"
        },
        {
          "indexed": true,
          "internalType": "uint16",
          "name": "key",
          "type": "uint16"
        },
        {
          "indexed": false,
          "internalType": "string",
          "name": "value",
          "type": "string"
        }
      ],
      "name": "ContentChanged",
      "type": "event"
    },
    {
      "anonymous": false,
      "inputs": [
        {
          "indexed": true,
          "internalType": "address",
          "name": "previousOwner",
          "type": "address"
        },
        {
          "indexed": true,
          "internalType": "address",
          "name": "newOwner",
          "type": "address"
        }
      ],
      "name": "OwnershipTransferred",
      "type": "event"
    },
    {
      "anonymous": false,
      "inputs": [
        {
          "indexed": true,
          "internalType": "address",
          "name": "series",
          "type": "address"
        },
        {
          "indexed": true,
          "internalType": "uint16",
          "name": "key",
          "type": "uint16"
        },
        {
          "indexed": false,
          "internalType": "address",
          "name": "value",
          "type": "address"
        }
      ],
      "name": "RecordChanged",
      "type": "event"
    },
    {
      "inputs": [],
      "name": "owner",
      "outputs": [
        {
          "internalType": "address",
          "name": "",
          "type": "address"
        }
      ],
      "stateMutability": "view",
      "type": "function"
    },
    {
      "inputs": [],
      "name": "renounceOwnership",
      "outputs": [],
      "stateMutability": "nonpayable",
      "type": "function"
    },
    {
      "inputs": [
        {
          "internalType": "address",
          "name": "newOwner",
          "type": "address"
        }
      ],
      "name": "transferOwnership",
      "outputs": [],
      "stateMutability": "nonpayable",
      "type": "function"
    },
    {
      "inputs": [
        {
          "internalType": "address[]",
          "name": "previousSeries",
          "type": "address[]"
        },
        {
          "internalType": "address[]",
          "name": "previousTokens",
          "type": "address[]"
        }
      ],
      "name": "initialize",
      "outputs": [],
      "stateMutability": "nonpayable",
      "type": "function"
    },
    {
      "inputs": [
        {
          "internalType": "address",
          "name": "series",
          "type": "address"
        },
        {
          "internalType": "uint16",
          "name": "key",
          "type": "uint16"
        },
        {
          "internalType": "address",
          "name": "value",
          "type": "address"
        }
      ],
      "name": "setRecord",
      "outputs": [],
      "stateMutability": "nonpayable",
      "type": "function"
    },
    {
      "inputs": [
        {
          "internalType": "address",
          "name": "series",
          "type": "address"
        },
        {
          "internalType": "uint16",
          "name": "key",
          "type": "uint16"
        }
      ],
      "name": "getRecord",
      "outputs": [
        {
          "internalType": "address",
          "name": "",
          "type": "address"
        }
      ],
      "stateMutability": "view",
      "type": "function"
    },
    {
      "inputs": [
        {
          "internalType": "address",
          "name": "series",
          "type": "address"
        },
        {
          "internalType": "uint16",
          "name": "key",
          "type": "uint16"
        },
        {
          "internalType": "string",
          "name": "value",
          "type": "string"
        }
      ],
      "name": "setContent",
      "outputs": [],
      "stateMutability": "nonpayable",
      "type": "function"
    },
    {
      "inputs": [
        {
          "internalType": "address",
          "name": "series",
          "type": "address"
        },
        {
          "internalType": "uint16",
          "name": "key",
          "type": "uint16"
        }
      ],
      "name": "getContent",
      "outputs": [
        {
          "internalType": "string",
          "name": "",
          "type": "string"
        }
      ],
      "stateMutability": "view",
      "type": "function"
    },
    {
      "inputs": [
        {
          "internalType": "uint16",
          "name": "pluginID",
          "type": "uint16"
        },
        {
          "internalType": "address",
          "name": "pluginAddress",
          "type": "address"
        }
      ],
      "name": "setPluginController",
      "outputs": [],
      "stateMutability": "nonpayable",
      "type": "function"
    }
  ],
  "bytecode": "0x608060405234801561001057600080fd5b50611a6c806100206000396000f3fe608060405234801561001057600080fd5b50600436106100935760003560e01c8063715018a611610066578063715018a61461013057806373cf25f81461013a5780638da5cb5b14610156578063cc88096114610174578063f2fde38b1461019057610093565b80630b15babc146100985780631e7b18f2146100c8578063245c3d30146100e457806357bd241214610114575b600080fd5b6100b260048036038101906100ad919061129a565b6101ac565b6040516100bf91906116e9565b60405180910390f35b6100e260048036038101906100dd9190611325565b61022f565b005b6100fe60048036038101906100f9919061129a565b610340565b60405161010b9190611704565b60405180910390f35b61012e600480360381019061012991906112d6565b61042b565b005b610138610588565b005b610154600480360381019061014f919061138c565b610610565b005b61015e6108a0565b60405161016b91906116e9565b60405180910390f35b61018e60048036038101906101899190611401565b6108ca565b005b6101aa60048036038101906101a59190611248565b6109a4565b005b6000606660008473ffffffffffffffffffffffffffffffffffffffff1673ffffffffffffffffffffffffffffffffffffffff16815260200190815260200160002060008361ffff1661ffff16815260200190815260200160002060009054906101000a900473ffffffffffffffffffffffffffffffffffffffff16905092915050565b828261023a82610a9c565b610279576040517f08c379a000000000000000000000000000000000000000000000000000000000815260040161027090611786565b60405180910390fd5b82606760008773ffffffffffffffffffffffffffffffffffffffff1673ffffffffffffffffffffffffffffffffffffffff16815260200190815260200160002060008661ffff1661ffff16815260200190815260200160002090805190602001906102e59291906110b4565b508361ffff168573ffffffffffffffffffffffffffffffffffffffff167f3e5cb35232b9847a30ff70662e1419f2e5fe64e95098da905eaf3b67924b6954856040516103319190611704565b60405180910390a35050505050565b6060606760008473ffffffffffffffffffffffffffffffffffffffff1673ffffffffffffffffffffffffffffffffffffffff16815260200190815260200160002060008361ffff1661ffff16815260200190815260200160002080546103a5906118ef565b80601f01602080910402602001604051908101604052809291908181526020018280546103d1906118ef565b801561041e5780601f106103f35761010080835404028352916020019161041e565b820191906000526020600020905b81548152906001019060200180831161040157829003601f168201915b5050505050905092915050565b828261043682610a9c565b8061044757506104468282610b58565b5b8061045857506104578282610c10565b5b610497576040517f08c379a000000000000000000000000000000000000000000000000000000000815260040161048e90611766565b60405180910390fd5b82606660008773ffffffffffffffffffffffffffffffffffffffff1673ffffffffffffffffffffffffffffffffffffffff16815260200190815260200160002060008661ffff1661ffff16815260200190815260200160002060006101000a81548173ffffffffffffffffffffffffffffffffffffffff021916908373ffffffffffffffffffffffffffffffffffffffff1602179055508361ffff168573ffffffffffffffffffffffffffffffffffffffff167f1ec93fbaf16b55afda845ed8b38d373f803e0be3b2de82ae11ef55e35c2fb5098560405161057991906116e9565b60405180910390a35050505050565b610590610d3b565b73ffffffffffffffffffffffffffffffffffffffff166105ae6108a0565b73ffffffffffffffffffffffffffffffffffffffff1614610604576040517f08c379a00000000000000000000000000000000000000000000000000000000081526004016105fb906117a6565b60405180910390fd5b61060e6000610d43565b565b818190508484905014610658576040517f08c379a000000000000000000000000000000000000000000000000000000000815260040161064f906117c6565b60405180910390fd5b610660610e09565b60005b84849050811015610899578282828181106106a7577f4e487b7100000000000000000000000000000000000000000000000000000000600052603260045260246000fd5b90506020020160208101906106bc9190611248565b606660008787858181106106f9577f4e487b7100000000000000000000000000000000000000000000000000000000600052603260045260246000fd5b905060200201602081019061070e9190611248565b73ffffffffffffffffffffffffffffffffffffffff1673ffffffffffffffffffffffffffffffffffffffff1681526020019081526020016000206000600161ffff16815260200190815260200160002060006101000a81548173ffffffffffffffffffffffffffffffffffffffff021916908373ffffffffffffffffffffffffffffffffffffffff16021790555060018585838181106107d7577f4e487b7100000000000000000000000000000000000000000000000000000000600052603260045260246000fd5b90506020020160208101906107ec9190611248565b73ffffffffffffffffffffffffffffffffffffffff167f1ec93fbaf16b55afda845ed8b38d373f803e0be3b2de82ae11ef55e35c2fb50985858581811061085c577f4e487b7100000000000000000000000000000000000000000000000000000000600052603260045260246000fd5b90506020020160208101906108719190611248565b60405161087e91906116e9565b60405180910390a3808061089190611921565b915050610663565b5050505050565b6000603360009054906101000a900473ffffffffffffffffffffffffffffffffffffffff16905090565b6108d2610d3b565b73ffffffffffffffffffffffffffffffffffffffff166108f06108a0565b73ffffffffffffffffffffffffffffffffffffffff1614610946576040517f08c379a000000000000000000000000000000000000000000000000000000000815260040161093d906117a6565b60405180910390fd5b80606560008461ffff1661ffff16815260200190815260200160002060006101000a81548173ffffffffffffffffffffffffffffffffffffffff021916908373ffffffffffffffffffffffffffffffffffffffff1602179055505050565b6109ac610d3b565b73ffffffffffffffffffffffffffffffffffffffff166109ca6108a0565b73ffffffffffffffffffffffffffffffffffffffff1614610a20576040517f08c379a0000000000000000000000000000000000000000000000000000000008152600401610a17906117a6565b60405180910390fd5b600073ffffffffffffffffffffffffffffffffffffffff168173ffffffffffffffffffffffffffffffffffffffff161415610a90576040517f08c379a0000000000000000000000000000000000000000000000000000000008152600401610a8790611726565b60405180910390fd5b610a9981610d43565b50565b6000610aa6610d3b565b73ffffffffffffffffffffffffffffffffffffffff168273ffffffffffffffffffffffffffffffffffffffff16638da5cb5b6040518163ffffffff1660e01b815260040160206040518083038186803b158015610b0257600080fd5b505afa158015610b16573d6000803e3d6000fd5b505050506040513d601f19601f82011682018060405250810190610b3a9190611271565b73ffffffffffffffffffffffffffffffffffffffff16149050919050565b6000610b62610d3b565b73ffffffffffffffffffffffffffffffffffffffff16606660008573ffffffffffffffffffffffffffffffffffffffff1673ffffffffffffffffffffffffffffffffffffffff16815260200190815260200160002060008461ffff1661ffff16815260200190815260200160002060009054906101000a900473ffffffffffffffffffffffffffffffffffffffff1673ffffffffffffffffffffffffffffffffffffffff1614905092915050565b6000606560008361ffff1661ffff16815260200190815260200160002060009054906101000a900473ffffffffffffffffffffffffffffffffffffffff1673ffffffffffffffffffffffffffffffffffffffff16610c6c610d3b565b73ffffffffffffffffffffffffffffffffffffffff16148015610d335750600073ffffffffffffffffffffffffffffffffffffffff16606660008573ffffffffffffffffffffffffffffffffffffffff1673ffffffffffffffffffffffffffffffffffffffff16815260200190815260200160002060008461ffff1661ffff16815260200190815260200160002060009054906101000a900473ffffffffffffffffffffffffffffffffffffffff1673ffffffffffffffffffffffffffffffffffffffff16145b905092915050565b600033905090565b6000603360009054906101000a900473ffffffffffffffffffffffffffffffffffffffff16905081603360006101000a81548173ffffffffffffffffffffffffffffffffffffffff021916908373ffffffffffffffffffffffffffffffffffffffff1602179055508173ffffffffffffffffffffffffffffffffffffffff168173ffffffffffffffffffffffffffffffffffffffff167f8be0079c531659141344cd1fd0a4f28419497f9722a3daafe3b4186f6b6457e060405160405180910390a35050565b600060019054906101000a900460ff1680610e2f575060008054906101000a900460ff16155b610e6e576040517f08c379a0000000000000000000000000000000000000000000000000000000008152600401610e6590611746565b60405180910390fd5b60008060019054906101000a900460ff161590508015610ebe576001600060016101000a81548160ff02191690831515021790555060016000806101000a81548160ff0219169083151502179055505b610ec6610ef2565b610ece610fcb565b8015610eef5760008060016101000a81548160ff0219169083151502179055505b50565b600060019054906101000a900460ff1680610f18575060008054906101000a900460ff16155b610f57576040517f08c379a0000000000000000000000000000000000000000000000000000000008152600401610f4e90611746565b60405180910390fd5b60008060019054906101000a900460ff161590508015610fa7576001600060016101000a81548160ff02191690831515021790555060016000806101000a81548160ff0219169083151502179055505b8015610fc85760008060016101000a81548160ff0219169083151502179055505b50565b600060019054906101000a900460ff1680610ff1575060008054906101000a900460ff16155b611030576040517f08c379a000000000000000000000000000000000000000000000000000000000815260040161102790611746565b60405180910390fd5b60008060019054906101000a900460ff161590508015611080576001600060016101000a81548160ff02191690831515021790555060016000806101000a81548160ff0219169083151502179055505b61109061108b610d3b565b610d43565b80156110b15760008060016101000a81548160ff0219169083151502179055505b50565b8280546110c0906118ef565b90600052602060002090601f0160209004810192826110e25760008555611129565b82601f106110fb57805160ff1916838001178555611129565b82800160010185558215611129579182015b8281111561112857825182559160200191906001019061110d565b5b509050611136919061113a565b5090565b5b8082111561115357600081600090555060010161113b565b5090565b600061116a61116584611817565b6117e6565b90508281526020810184848401111561118257600080fd5b61118d8482856118ad565b509392505050565b6000813590506111a481611a08565b92915050565b6000815190506111b981611a08565b92915050565b60008083601f8401126111d157600080fd5b8235905067ffffffffffffffff8111156111ea57600080fd5b60208301915083602082028301111561120257600080fd5b9250929050565b600082601f83011261121a57600080fd5b813561122a848260208601611157565b91505092915050565b60008135905061124281611a1f565b92915050565b60006020828403121561125a57600080fd5b600061126884828501611195565b91505092915050565b60006020828403121561128357600080fd5b6000611291848285016111aa565b91505092915050565b600080604083850312156112ad57600080fd5b60006112bb85828601611195565b92505060206112cc85828601611233565b9150509250929050565b6000806000606084860312156112eb57600080fd5b60006112f986828701611195565b935050602061130a86828701611233565b925050604061131b86828701611195565b9150509250925092565b60008060006060848603121561133a57600080fd5b600061134886828701611195565b935050602061135986828701611233565b925050604084013567ffffffffffffffff81111561137657600080fd5b61138286828701611209565b9150509250925092565b600080600080604085870312156113a257600080fd5b600085013567ffffffffffffffff8111156113bc57600080fd5b6113c8878288016111bf565b9450945050602085013567ffffffffffffffff8111156113e757600080fd5b6113f3878288016111bf565b925092505092959194509250565b6000806040838503121561141457600080fd5b600061142285828601611233565b925050602061143385828601611195565b9150509250929050565b61144681611863565b82525050565b600061145782611847565b6114618185611852565b93506114718185602086016118bc565b61147a816119f7565b840191505092915050565b6000611492602683611852565b91507f4f776e61626c653a206e6577206f776e657220697320746865207a65726f206160008301527f64647265737300000000000000000000000000000000000000000000000000006020830152604082019050919050565b60006114f8602e83611852565b91507f496e697469616c697a61626c653a20636f6e747261637420697320616c72656160008301527f647920696e697469616c697a65640000000000000000000000000000000000006020830152604082019050919050565b600061155e604383611852565b91507f4e6f7420417574686f72697a65643a2043616c6c6572206973206e6f7420736560008301527f72696573206f776e65722c20706c7567696e206f72207265636f72642069747360208301527f656c6600000000000000000000000000000000000000000000000000000000006040830152606082019050919050565b60006115ea602a83611852565b91507f4e6f7420417574686f72697a65643a2043616c6c6572206973206e6f7420736560008301527f72696573206f776e6572000000000000000000000000000000000000000000006020830152604082019050919050565b6000611650602083611852565b91507f4f776e61626c653a2063616c6c6572206973206e6f7420746865206f776e65726000830152602082019050919050565b6000611690603983611852565b91507f50726576696f7573207365726965732073697a6520646966666572656e74207460008301527f68616e2070726576696f757320746f6b656e732073697a652e000000000000006020830152604082019050919050565b60006020820190506116fe600083018461143d565b92915050565b6000602082019050818103600083015261171e818461144c565b905092915050565b6000602082019050818103600083015261173f81611485565b9050919050565b6000602082019050818103600083015261175f816114eb565b9050919050565b6000602082019050818103600083015261177f81611551565b9050919050565b6000602082019050818103600083015261179f816115dd565b9050919050565b600060208201905081810360008301526117bf81611643565b9050919050565b600060208201905081810360008301526117df81611683565b9050919050565b6000604051905081810181811067ffffffffffffffff8211171561180d5761180c6119c8565b5b8060405250919050565b600067ffffffffffffffff821115611832576118316119c8565b5b601f19601f8301169050602081019050919050565b600081519050919050565b600082825260208201905092915050565b600061186e82611883565b9050919050565b600061ffff82169050919050565b600073ffffffffffffffffffffffffffffffffffffffff82169050919050565b6000819050919050565b82818337600083830152505050565b60005b838110156118da5780820151818401526020810190506118bf565b838111156118e9576000848401525b50505050565b6000600282049050600182168061190757607f821691505b6020821081141561191b5761191a611999565b5b50919050565b600061192c826118a3565b91507fffffffffffffffffffffffffffffffffffffffffffffffffffffffffffffffff82141561195f5761195e61196a565b5b600182019050919050565b7f4e487b7100000000000000000000000000000000000000000000000000000000600052601160045260246000fd5b7f4e487b7100000000000000000000000000000000000000000000000000000000600052602260045260246000fd5b7f4e487b7100000000000000000000000000000000000000000000000000000000600052604160045260246000fd5b6000601f19601f8301169050919050565b611a1181611863565b8114611a1c57600080fd5b50565b611a2881611875565b8114611a3357600080fd5b5056fea264697066735822122078d4534eed5cd10934b83ad2cb3a7650bfe2154be561b8635213d4fe04a0e99f64736f6c63430008000033",
  "immutableReferences": {},
  "source": "// SPDX-License-Identifier: UNLICENSED\npragma solidity 0.8.0;\n\nimport '@openzeppelin/contracts-upgradeable/access/OwnableUpgradeable.sol';\nimport '@openzeppelin/contracts-upgradeable/proxy/utils/Initializable.sol';\n/**\n@title Master Registry Contract\n@author Filipe Soccol\n*/\ncontract MasterRegistry is Initializable, OwnableUpgradeable {\n\n    event RecordChanged(address indexed series, uint16 indexed key, address value);\n    event ContentChanged(address indexed series, uint16 indexed key, string value);\n\n    // Mapping PluginID => Pluggin contract address\n    mapping(uint16=>address) private plugins;\n    // Mapping Series Address => PluginID => Deployd Contract Address\n    mapping(address=>mapping(uint16=>address)) private records;\n    // Mapping Series Address => PluginID => Content\n    mapping(address=>mapping(uint16=>string)) private contents;\n\n    /**\n    @notice Modifier that only allow the following entities change content:\n    - Series owners\n    - Plugin itself in case of empty series record\n    - Current module itself addressed by record\n    @param _series The plugin index to update.\n    @param _key The new address where remains the plugin.\n     */\n    modifier authorizedRecord(address _series, uint16 _key) {\n        require(isSeriesOwner(_series) ||\n        isRecordItself(_series, _key) ||\n        isRecordPlugin(_series, _key), \"Not Authorized: Caller is not series owner, plugin or record itself\");\n        _;\n    }\n\n    /**\n     * @notice Modifier to allow only series owners to change content.\n     * @param _series The plugin index to update.\n     * @param _key The new address where remains the plugin.\n     */\n    modifier onlySeriesOwner(address _series, uint16 _key) {\n        require(isSeriesOwner(_series), \"Not Authorized: Caller is not series owner\");\n        _;\n    }\n\n    function initialize(address[] calldata previousSeries, address[] calldata previousTokens) external {\n        require(previousSeries.length == previousTokens.length, 'Previous series size different than previous tokens size.');\n        __Ownable_init();\n        // Migrating previous tokens\n        for (uint i = 0; i < previousSeries.length; i++ ) {\n            records[previousSeries[i]][1] = previousTokens[i];\n            emit RecordChanged(previousSeries[i], 1, previousTokens[i]);\n        }\n    }\n\n    /**\n    @notice Sets the module contract associated with an Series and record.\n    May only be called by the owner of that series, module itself or record plugin itself.\n    @param series The series to update.\n    @param key The key to set.\n    @param value The text data value to set.\n     */\n    function setRecord(address series, uint16 key, address value) public authorizedRecord(series, key) {\n        records[series][key] = value;\n        emit RecordChanged(series, key, value);\n    }\n\n    /**\n    @notice Returns the data associated with an record Series and Key.\n    @param series The series node to query.\n    @param key The text data key to query.\n    @return The associated text data.\n     */\n    function getRecord(address series, uint16 key) public view returns (address) {\n        return records[series][key];\n    }\n\n    /**\n    @notice Sets the content data associated with an Series and key.\n    May only be called by the owner of that series.\n    @param series The series to update.\n    @param key The key to set.\n    @param value The text data value to set.\n     */\n    function setContent(address series, uint16 key, string memory value) public onlySeriesOwner(series, key) {\n        contents[series][key] = value;\n        emit ContentChanged(series, key, value);\n    }\n\n    /**\n     @notice Returns the content associated with an content Series and Key.\n     @param series The series node to query.\n     @param key The text data key to query.\n     @return The associated text data.\n     */\n    function getContent(address series, uint16 key) public view returns (string memory) {\n        return contents[series][key];\n    }\n\n    /**\n     @notice Sets the plugin that controls specific entry on records.\n     Only owner of this contract has permission.\n     @param pluginID The plugin index to update.\n     @param pluginAddress The new address where remains the plugin.\n     */\n    function setPluginController(uint16 pluginID, address pluginAddress) public onlyOwner {\n        plugins[pluginID] = pluginAddress;\n    }\n\n    /**\n     @notice Check if sender is the series owner.\n     @param _series Referenced Series to check.\n     */\n    function isSeriesOwner(address _series) private view returns (bool) {\n        return OwnableUpgradeable(_series).owner() == _msgSender();\n    }\n\n    /**\n     @notice Check if sender is the Record stored itself. E.g.: A multisig stored could change multisig key referenced.\n     @param _series Referenced Series to check.\n     @param _key Key relate to the entry.\n     */\n    function isRecordItself(address _series, uint16 _key) private view returns (bool) {\n        return records[_series][_key] == _msgSender();\n    }\n\n    /**\n     @notice Check if sender is the Plugin related to the key. This is only valid for new entries, not to replace existing ones.\n     @param _series Referenced Series to check.\n     @param _key Key relate to the entry.\n     */\n    function isRecordPlugin(address _series, uint16 _key) private view returns (bool) {\n        return _msgSender() == plugins[_key] && records[_series][_key] == address(0);\n    }\n}",
  "sourcePath": "/Users/filipemsoccol/Documents/doiim/otoco-smart-contracts/contracts/MasterRegistry.sol",
  "compiler": {
    "name": "solc",
    "version": "0.8.0+commit.c7dfd78e.Emscripten.clang"
  },
  "schemaVersion": "3.4.0",
  "updatedAt": "2021-10-14T20:00:53.877Z",
  "devdoc": {
    "author": "Filipe Soccol",
    "kind": "dev",
    "methods": {
      "getContent(address,uint16)": {
        "params": {
          "key": "The text data key to query.",
          "series": "The series node to query."
        },
        "returns": {
          "_0": "The associated text data."
        }
      },
      "getRecord(address,uint16)": {
        "params": {
          "key": "The text data key to query.",
          "series": "The series node to query."
        },
        "returns": {
          "_0": "The associated text data."
        }
      },
      "owner()": {
        "details": "Returns the address of the current owner."
      },
      "renounceOwnership()": {
        "details": "Leaves the contract without owner. It will not be possible to call `onlyOwner` functions anymore. Can only be called by the current owner. NOTE: Renouncing ownership will leave the contract without an owner, thereby removing any functionality that is only available to the owner."
      },
      "setContent(address,uint16,string)": {
        "params": {
          "key": "The key to set.",
          "series": "The series to update.",
          "value": "The text data value to set."
        }
      },
      "setPluginController(uint16,address)": {
        "params": {
          "pluginAddress": "The new address where remains the plugin.",
          "pluginID": "The plugin index to update."
        }
      },
      "setRecord(address,uint16,address)": {
        "params": {
          "key": "The key to set.",
          "series": "The series to update.",
          "value": "The text data value to set."
        }
      },
      "transferOwnership(address)": {
        "details": "Transfers ownership of the contract to a new account (`newOwner`). Can only be called by the current owner."
      }
    },
    "title": "Master Registry Contract",
    "version": 1
  },
  "userdoc": {
    "kind": "user",
    "methods": {
      "getContent(address,uint16)": {
        "notice": "Returns the content associated with an content Series and Key."
      },
      "getRecord(address,uint16)": {
        "notice": "Returns the data associated with an record Series and Key."
      },
      "setContent(address,uint16,string)": {
        "notice": "Sets the content data associated with an Series and key. May only be called by the owner of that series."
      },
      "setPluginController(uint16,address)": {
        "notice": "Sets the plugin that controls specific entry on records. Only owner of this contract has permission."
      },
      "setRecord(address,uint16,address)": {
        "notice": "Sets the module contract associated with an Series and record. May only be called by the owner of that series, module itself or record plugin itself."
      }
    },
    "version": 1
  }
}