{
  "contractName": "MultisigFactory",
  "abi": [
    {
      "anonymous": false,
      "inputs": [
        {
          "indexed": true,
          "internalType": "address",
          "name": "series",
          "type": "address"
        },
        {
          "indexed": false,
          "internalType": "address",
          "name": "value",
          "type": "address"
        }
      ],
      "name": "MultisigCreated",
      "type": "event"
    },
    {
      "anonymous": false,
      "inputs": [
        {
          "indexed": true,
          "internalType": "address",
          "name": "previousOwner",
          "type": "address"
        },
        {
          "indexed": true,
          "internalType": "address",
          "name": "newOwner",
          "type": "address"
        }
      ],
      "name": "OwnershipTransferred",
      "type": "event"
    },
    {
      "inputs": [],
      "name": "owner",
      "outputs": [
        {
          "internalType": "address",
          "name": "",
          "type": "address"
        }
      ],
      "stateMutability": "view",
      "type": "function"
    },
    {
      "inputs": [],
      "name": "renounceOwnership",
      "outputs": [],
      "stateMutability": "nonpayable",
      "type": "function"
    },
    {
      "inputs": [
        {
          "internalType": "address",
          "name": "newOwner",
          "type": "address"
        }
      ],
      "name": "transferOwnership",
      "outputs": [],
      "stateMutability": "nonpayable",
      "type": "function"
    },
    {
      "inputs": [
        {
          "internalType": "address",
          "name": "masterCopy",
          "type": "address"
        }
      ],
      "name": "initialize",
      "outputs": [],
      "stateMutability": "nonpayable",
      "type": "function"
    },
    {
      "inputs": [
        {
          "internalType": "address",
          "name": "newAddress",
          "type": "address"
        }
      ],
      "name": "updateGnosisMasterCopy",
      "outputs": [],
      "stateMutability": "nonpayable",
      "type": "function"
    },
    {
      "inputs": [
        {
          "internalType": "address",
          "name": "newAddress",
          "type": "address"
        }
      ],
      "name": "updateRegistryContract",
      "outputs": [],
      "stateMutability": "nonpayable",
      "type": "function"
    },
    {
      "inputs": [
        {
          "internalType": "address",
          "name": "_series",
          "type": "address"
        },
        {
          "internalType": "bytes",
          "name": "data",
          "type": "bytes"
        }
      ],
      "name": "createMultisig",
      "outputs": [],
      "stateMutability": "nonpayable",
      "type": "function"
    }
  ],
  "bytecode": "0x608060405234801561001057600080fd5b506110dc806100206000396000f3fe608060405234801561001057600080fd5b506004361061007d5760003560e01c8063715018a61161005b578063715018a6146100d65780638da5cb5b146100e0578063c4d66de8146100fe578063f2fde38b1461011a5761007d565b80630602a7891461008257806310bba2851461009e5780631607d6bf146100ba575b600080fd5b61009c60048036038101906100979190610bbc565b610136565b005b6100b860048036038101906100b39190610bbc565b6101f6565b005b6100d460048036038101906100cf9190610c0e565b6102b6565b005b6100de6105bb565b005b6100e8610643565b6040516100f59190610e2b565b60405180910390f35b61011860048036038101906101139190610bbc565b61066d565b005b610134600480360381019061012f9190610bbc565b6106b9565b005b61013e6107b1565b73ffffffffffffffffffffffffffffffffffffffff1661015c610643565b73ffffffffffffffffffffffffffffffffffffffff16146101b2576040517f08c379a00000000000000000000000000000000000000000000000000000000081526004016101a990610eed565b60405180910390fd5b80606560006101000a81548173ffffffffffffffffffffffffffffffffffffffff021916908373ffffffffffffffffffffffffffffffffffffffff16021790555050565b6101fe6107b1565b73ffffffffffffffffffffffffffffffffffffffff1661021c610643565b73ffffffffffffffffffffffffffffffffffffffff1614610272576040517f08c379a000000000000000000000000000000000000000000000000000000000815260040161026990610eed565b60405180910390fd5b80606660006101000a81548173ffffffffffffffffffffffffffffffffffffffff021916908373ffffffffffffffffffffffffffffffffffffffff16021790555050565b816102bf6107b1565b73ffffffffffffffffffffffffffffffffffffffff168173ffffffffffffffffffffffffffffffffffffffff16638da5cb5b6040518163ffffffff1660e01b815260040160206040518083038186803b15801561031b57600080fd5b505afa15801561032f573d6000803e3d6000fd5b505050506040513d601f19601f820116820180604052508101906103539190610be5565b73ffffffffffffffffffffffffffffffffffffffff16146103a9576040517f08c379a00000000000000000000000000000000000000000000000000000000081526004016103a090610f0d565b60405180910390fd5b6000606760009054906101000a900473ffffffffffffffffffffffffffffffffffffffff1673ffffffffffffffffffffffffffffffffffffffff166361b69abd606560009054906101000a900473ffffffffffffffffffffffffffffffffffffffff16856040518363ffffffff1660e01b815260040161042a929190610e46565b602060405180830381600087803b15801561044457600080fd5b505af1158015610458573d6000803e3d6000fd5b505050506040513d601f19601f8201168201806040525081019061047c9190610be5565b9050600073ffffffffffffffffffffffffffffffffffffffff16606660009054906101000a900473ffffffffffffffffffffffffffffffffffffffff1673ffffffffffffffffffffffffffffffffffffffff161461056757606660009054906101000a900473ffffffffffffffffffffffffffffffffffffffff1673ffffffffffffffffffffffffffffffffffffffff166357bd2412856002846040518463ffffffff1660e01b815260040161053493929190610e76565b600060405180830381600087803b15801561054e57600080fd5b505af1158015610562573d6000803e3d6000fd5b505050505b8373ffffffffffffffffffffffffffffffffffffffff167f38b56a7814c1a51663dba0756bf5ece28e95bcf82cf63a76479424baf9c680f9826040516105ad9190610e2b565b60405180910390a250505050565b6105c36107b1565b73ffffffffffffffffffffffffffffffffffffffff166105e1610643565b73ffffffffffffffffffffffffffffffffffffffff1614610637576040517f08c379a000000000000000000000000000000000000000000000000000000000815260040161062e90610eed565b60405180910390fd5b61064160006107b9565b565b6000603360009054906101000a900473ffffffffffffffffffffffffffffffffffffffff16905090565b61067561087f565b80606560006101000a81548173ffffffffffffffffffffffffffffffffffffffff021916908373ffffffffffffffffffffffffffffffffffffffff16021790555050565b6106c16107b1565b73ffffffffffffffffffffffffffffffffffffffff166106df610643565b73ffffffffffffffffffffffffffffffffffffffff1614610735576040517f08c379a000000000000000000000000000000000000000000000000000000000815260040161072c90610eed565b60405180910390fd5b600073ffffffffffffffffffffffffffffffffffffffff168173ffffffffffffffffffffffffffffffffffffffff1614156107a5576040517f08c379a000000000000000000000000000000000000000000000000000000000815260040161079c90610ead565b60405180910390fd5b6107ae816107b9565b50565b600033905090565b6000603360009054906101000a900473ffffffffffffffffffffffffffffffffffffffff16905081603360006101000a81548173ffffffffffffffffffffffffffffffffffffffff021916908373ffffffffffffffffffffffffffffffffffffffff1602179055508173ffffffffffffffffffffffffffffffffffffffff168173ffffffffffffffffffffffffffffffffffffffff167f8be0079c531659141344cd1fd0a4f28419497f9722a3daafe3b4186f6b6457e060405160405180910390a35050565b600060019054906101000a900460ff16806108a5575060008054906101000a900460ff16155b6108e4576040517f08c379a00000000000000000000000000000000000000000000000000000000081526004016108db90610ecd565b60405180910390fd5b60008060019054906101000a900460ff161590508015610934576001600060016101000a81548160ff02191690831515021790555060016000806101000a81548160ff0219169083151502179055505b61093c610968565b610944610a41565b80156109655760008060016101000a81548160ff0219169083151502179055505b50565b600060019054906101000a900460ff168061098e575060008054906101000a900460ff16155b6109cd576040517f08c379a00000000000000000000000000000000000000000000000000000000081526004016109c490610ecd565b60405180910390fd5b60008060019054906101000a900460ff161590508015610a1d576001600060016101000a81548160ff02191690831515021790555060016000806101000a81548160ff0219169083151502179055505b8015610a3e5760008060016101000a81548160ff0219169083151502179055505b50565b600060019054906101000a900460ff1680610a67575060008054906101000a900460ff16155b610aa6576040517f08c379a0000000000000000000000000000000000000000000000000000000008152600401610a9d90610ecd565b60405180910390fd5b60008060019054906101000a900460ff161590508015610af6576001600060016101000a81548160ff02191690831515021790555060016000806101000a81548160ff0219169083151502179055505b610b06610b016107b1565b6107b9565b8015610b275760008060016101000a81548160ff0219169083151502179055505b50565b6000610b3d610b3884610f5e565b610f2d565b905082815260208101848484011115610b5557600080fd5b610b6084828561100d565b509392505050565b600081359050610b778161108f565b92915050565b600081519050610b8c8161108f565b92915050565b600082601f830112610ba357600080fd5b8135610bb3848260208601610b2a565b91505092915050565b600060208284031215610bce57600080fd5b6000610bdc84828501610b68565b91505092915050565b600060208284031215610bf757600080fd5b6000610c0584828501610b7d565b91505092915050565b60008060408385031215610c2157600080fd5b6000610c2f85828601610b68565b925050602083013567ffffffffffffffff811115610c4c57600080fd5b610c5885828601610b92565b9150509250929050565b610c6b81610fbb565b82525050565b6000610c7c82610f8e565b610c868185610f99565b9350610c9681856020860161101c565b610c9f8161107e565b840191505092915050565b610cb381610ffb565b82525050565b6000610cc6602683610faa565b91507f4f776e61626c653a206e6577206f776e657220697320746865207a65726f206160008301527f64647265737300000000000000000000000000000000000000000000000000006020830152604082019050919050565b6000610d2c602e83610faa565b91507f496e697469616c697a61626c653a20636f6e747261637420697320616c72656160008301527f647920696e697469616c697a65640000000000000000000000000000000000006020830152604082019050919050565b6000610d92602083610faa565b91507f4f776e61626c653a2063616c6c6572206973206e6f7420746865206f776e65726000830152602082019050919050565b6000610dd2602c83610faa565b91507f4572726f723a204f6e6c7920536572696573204f776e657220636f756c64206460008301527f65706c6f7920746f6b656e7300000000000000000000000000000000000000006020830152604082019050919050565b6000602082019050610e406000830184610c62565b92915050565b6000604082019050610e5b6000830185610c62565b8181036020830152610e6d8184610c71565b90509392505050565b6000606082019050610e8b6000830186610c62565b610e986020830185610caa565b610ea56040830184610c62565b949350505050565b60006020820190508181036000830152610ec681610cb9565b9050919050565b60006020820190508181036000830152610ee681610d1f565b9050919050565b60006020820190508181036000830152610f0681610d85565b9050919050565b60006020820190508181036000830152610f2681610dc5565b9050919050565b6000604051905081810181811067ffffffffffffffff82111715610f5457610f5361104f565b5b8060405250919050565b600067ffffffffffffffff821115610f7957610f7861104f565b5b601f19601f8301169050602081019050919050565b600081519050919050565b600082825260208201905092915050565b600082825260208201905092915050565b6000610fc682610fdb565b9050919050565b600061ffff82169050919050565b600073ffffffffffffffffffffffffffffffffffffffff82169050919050565b600061100682610fcd565b9050919050565b82818337600083830152505050565b60005b8381101561103a57808201518184015260208101905061101f565b83811115611049576000848401525b50505050565b7f4e487b7100000000000000000000000000000000000000000000000000000000600052604160045260246000fd5b6000601f19601f8301169050919050565b61109881610fbb565b81146110a357600080fd5b5056fea2646970667358221220feea3d5a1947207ee60ed1c96820ee8b24d0a1b65267b91997da590e508d975264736f6c63430008000033",
  "immutableReferences": {},
  "source": "// SPDX-License-Identifier: UNLICENSED\npragma solidity 0.8.0;\n\nimport '@openzeppelin/contracts-upgradeable/access/OwnableUpgradeable.sol';\nimport '@openzeppelin/contracts-upgradeable/proxy/utils/Initializable.sol';\nimport \"./utils/IMasterRegistry.sol\";\n\ninterface IGnosisSafeProxyFactory {\n    function createProxy(address singleton, bytes memory data) external returns (address proxy);\n}\n\ncontract MultisigFactory is Initializable, OwnableUpgradeable {\n\n    event MultisigCreated(address indexed series, address value);\n\n    address private _gnosisMasterCopy;\n    address private _registryContract;\n    address private _gnosisProxyFactory;\n\n    modifier onlySeriesOwner(address _series) {\n        require(OwnableUpgradeable(_series).owner() == _msgSender(), \"Error: Only Series Owner could deploy tokens\");\n        _;\n    }\n\n    function initialize(address masterCopy) external {\n        __Ownable_init();\n        _gnosisMasterCopy = masterCopy;\n    }\n\n    function updateGnosisMasterCopy(address newAddress) public onlyOwner {\n        _gnosisMasterCopy = newAddress;\n    }\n\n    function updateRegistryContract(address newAddress) public onlyOwner {\n        _registryContract = newAddress;\n    }\n\n    function createMultisig(address _series, bytes memory data) public onlySeriesOwner(_series) {\n        address proxy = IGnosisSafeProxyFactory(_gnosisProxyFactory).createProxy(_gnosisMasterCopy, data);\n        if (_registryContract != address(0)){\n            IMasterRegistry(_registryContract).setRecord(_series, 2, address(proxy));\n        }\n        emit MultisigCreated(_series, address(proxy));\n    }\n}",
  "sourcePath": "/Users/filipemsoccol/Documents/doiim/otoco-smart-contracts/contracts/MultisigFactory.sol",
  "compiler": {
    "name": "solc",
    "version": "0.8.0+commit.c7dfd78e.Emscripten.clang"
  },
  "schemaVersion": "3.4.0",
  "updatedAt": "2021-10-14T20:00:53.897Z",
  "devdoc": {
    "kind": "dev",
    "methods": {
      "owner()": {
        "details": "Returns the address of the current owner."
      },
      "renounceOwnership()": {
        "details": "Leaves the contract without owner. It will not be possible to call `onlyOwner` functions anymore. Can only be called by the current owner. NOTE: Renouncing ownership will leave the contract without an owner, thereby removing any functionality that is only available to the owner."
      },
      "transferOwnership(address)": {
        "details": "Transfers ownership of the contract to a new account (`newOwner`). Can only be called by the current owner."
      }
    },
    "version": 1
  },
  "userdoc": {
    "kind": "user",
    "methods": {},
    "version": 1
  }
}