{
  "contractName": "OtoCorpWyoming",
  "abi": [
    {
      "inputs": [
        {
          "internalType": "contract ISeries",
          "name": "_source",
          "type": "address"
        }
      ],
      "stateMutability": "nonpayable",
      "type": "constructor"
    },
    {
      "anonymous": false,
      "inputs": [
        {
          "indexed": false,
          "internalType": "address",
          "name": "_contract",
          "type": "address"
        },
        {
          "indexed": false,
          "internalType": "address",
          "name": "_owner",
          "type": "address"
        },
        {
          "indexed": false,
          "internalType": "string",
          "name": "_name",
          "type": "string"
        }
      ],
      "name": "NewSeriesCreated",
      "type": "event"
    },
    {
      "anonymous": false,
      "inputs": [
        {
          "indexed": true,
          "internalType": "address",
          "name": "previousOwner",
          "type": "address"
        },
        {
          "indexed": true,
          "internalType": "address",
          "name": "newOwner",
          "type": "address"
        }
      ],
      "name": "OwnershipTransferred",
      "type": "event"
    },
    {
      "inputs": [],
      "name": "mySeries",
      "outputs": [
        {
          "internalType": "address[]",
          "name": "",
          "type": "address[]"
        }
      ],
      "stateMutability": "view",
      "type": "function"
    },
    {
      "inputs": [],
      "name": "owner",
      "outputs": [
        {
          "internalType": "address",
          "name": "",
          "type": "address"
        }
      ],
      "stateMutability": "view",
      "type": "function"
    },
    {
      "inputs": [],
      "name": "renounceOwnership",
      "outputs": [],
      "stateMutability": "nonpayable",
      "type": "function"
    },
    {
      "inputs": [
        {
          "internalType": "address",
          "name": "newOwner",
          "type": "address"
        }
      ],
      "name": "transferOwnership",
      "outputs": [],
      "stateMutability": "nonpayable",
      "type": "function"
    },
    {
      "inputs": [
        {
          "internalType": "address",
          "name": "_newSource",
          "type": "address"
        }
      ],
      "name": "updateSeriesSource",
      "outputs": [],
      "stateMutability": "nonpayable",
      "type": "function"
    },
    {
      "inputs": [
        {
          "internalType": "address",
          "name": "owner",
          "type": "address"
        },
        {
          "internalType": "string",
          "name": "seriesName",
          "type": "string"
        }
      ],
      "name": "createSeries",
      "outputs": [],
      "stateMutability": "nonpayable",
      "type": "function"
    },
    {
      "inputs": [
        {
          "internalType": "string",
          "name": "seriesName",
          "type": "string"
        }
      ],
      "name": "createSeries",
      "outputs": [],
      "stateMutability": "nonpayable",
      "type": "function"
    },
    {
      "inputs": [],
      "name": "getIndex",
      "outputs": [
        {
          "internalType": "string",
          "name": "",
          "type": "string"
        }
      ],
      "stateMutability": "view",
      "type": "function"
    }
  ],
  "bytecode": "0x608060405260016003553480156200001657600080fd5b506040516200154c3803806200154c83398181016040528101906200003c919062000189565b806200005d62000051620000a660201b60201c565b620000ae60201b60201c565b80600160006101000a81548173ffffffffffffffffffffffffffffffffffffffff021916908373ffffffffffffffffffffffffffffffffffffffff160217905550505062000217565b600033905090565b60008060009054906101000a900473ffffffffffffffffffffffffffffffffffffffff169050816000806101000a81548173ffffffffffffffffffffffffffffffffffffffff021916908373ffffffffffffffffffffffffffffffffffffffff1602179055508173ffffffffffffffffffffffffffffffffffffffff168173ffffffffffffffffffffffffffffffffffffffff167f8be0079c531659141344cd1fd0a4f28419497f9722a3daafe3b4186f6b6457e060405160405180910390a35050565b6000815190506200018381620001fd565b92915050565b6000602082840312156200019c57600080fd5b6000620001ac8482850162000172565b91505092915050565b6000620001c282620001dd565b9050919050565b6000620001d682620001b5565b9050919050565b600073ffffffffffffffffffffffffffffffffffffffff82169050919050565b6200020881620001c9565b81146200021457600080fd5b50565b61132580620002276000396000f3fe608060405234801561001057600080fd5b50600436106100885760003560e01c80638da5cb5b1161005b5780638da5cb5b146100ef5780639a1176ae1461010d578063cb9d15d214610129578063f2fde38b1461014557610088565b8063082394c41461008d5780634da69ef1146100ab578063715018a6146100c757806381045ead146100d1575b600080fd5b610095610161565b6040516100a29190610f2a565b60405180910390f35b6100c560048036038101906100c09190610ae7565b61022c565b005b6100cf6102ec565b005b6100d9610374565b6040516100e69190610f4c565b60405180910390f35b6100f7610386565b6040516101049190610ea1565b60405180910390f35b61012760048036038101906101229190610b39565b6103af565b005b610143600480360381019061013e9190610b8d565b610674565b005b61015f600480360381019061015a9190610ae7565b610681565b005b6060600260003373ffffffffffffffffffffffffffffffffffffffff1673ffffffffffffffffffffffffffffffffffffffff16815260200190815260200160002080548060200260200160405190810160405280929190818152602001828054801561022257602002820191906000526020600020905b8160009054906101000a900473ffffffffffffffffffffffffffffffffffffffff1673ffffffffffffffffffffffffffffffffffffffff16815260200190600101908083116101d8575b5050505050905090565b610234610779565b73ffffffffffffffffffffffffffffffffffffffff16610252610386565b73ffffffffffffffffffffffffffffffffffffffff16146102a8576040517f08c379a000000000000000000000000000000000000000000000000000000000815260040161029f90610fae565b60405180910390fd5b80600160006101000a81548173ffffffffffffffffffffffffffffffffffffffff021916908373ffffffffffffffffffffffffffffffffffffffff16021790555050565b6102f4610779565b73ffffffffffffffffffffffffffffffffffffffff16610312610386565b73ffffffffffffffffffffffffffffffffffffffff1614610368576040517f08c379a000000000000000000000000000000000000000000000000000000000815260040161035f90610fae565b60405180910390fd5b6103726000610781565b565b6060610381600354610845565b905090565b60008060009054906101000a900473ffffffffffffffffffffffffffffffffffffffff16905090565b60006103dc600160009054906101000a900473ffffffffffffffffffffffffffffffffffffffff16610918565b90506000826103e9610374565b6040516020016103fa929190610e4a565b60405160208183030381529060405290508173ffffffffffffffffffffffffffffffffffffffff1663f399e22e85836040518363ffffffff1660e01b8152600401610446929190610efa565b600060405180830381600087803b15801561046057600080fd5b505af1158015610474573d6000803e3d6000fd5b505050506003600081548092919061048b906111a1565b9190505550600260008573ffffffffffffffffffffffffffffffffffffffff1673ffffffffffffffffffffffffffffffffffffffff168152602001908152602001600020829080600181540180825580915050600190039060005260206000200160009091909190916101000a81548173ffffffffffffffffffffffffffffffffffffffff021916908373ffffffffffffffffffffffffffffffffffffffff1602179055507f6b24598605265141922419533776ab91fd1eabd50c014e3f597134d690f5876c828373ffffffffffffffffffffffffffffffffffffffff16638da5cb5b6040518163ffffffff1660e01b8152600401602060405180830381600087803b15801561059a57600080fd5b505af11580156105ae573d6000803e3d6000fd5b505050506040513d601f19601f820116820180604052508101906105d29190610b10565b8473ffffffffffffffffffffffffffffffffffffffff166317d7de7c6040518163ffffffff1660e01b8152600401600060405180830381600087803b15801561061a57600080fd5b505af115801561062e573d6000803e3d6000fd5b505050506040513d6000823e3d601f19601f820116820180604052508101906106579190610bce565b60405161066693929190610ebc565b60405180910390a150505050565b61067e33826103af565b50565b610689610779565b73ffffffffffffffffffffffffffffffffffffffff166106a7610386565b73ffffffffffffffffffffffffffffffffffffffff16146106fd576040517f08c379a00000000000000000000000000000000000000000000000000000000081526004016106f490610fae565b60405180910390fd5b600073ffffffffffffffffffffffffffffffffffffffff168173ffffffffffffffffffffffffffffffffffffffff16141561076d576040517f08c379a000000000000000000000000000000000000000000000000000000000815260040161076490610f6e565b60405180910390fd5b61077681610781565b50565b600033905090565b60008060009054906101000a900473ffffffffffffffffffffffffffffffffffffffff169050816000806101000a81548173ffffffffffffffffffffffffffffffffffffffff021916908373ffffffffffffffffffffffffffffffffffffffff1602179055508173ffffffffffffffffffffffffffffffffffffffff168173ffffffffffffffffffffffffffffffffffffffff167f8be0079c531659141344cd1fd0a4f28419497f9722a3daafe3b4186f6b6457e060405160405180910390a35050565b606060008211156108da57606060008390505b60008111156108d057600a60108261087091906111fc565b1061087c57605761087f565b60305b60ff1660108261088f91906111fc565b610899919061108f565b826040516020016108ab929190610e79565b60405160208183030381529060405291506010816108c991906110e5565b9050610858565b8192505050610913565b6040518060400160405280600181526020017f300000000000000000000000000000000000000000000000000000000000000081525090505b919050565b60006040517f3d602d80600a3d3981f3363d3d373d3d3d363d7300000000000000000000000081528260601b60148201527f5af43d82803e903d91602b57fd5bf3000000000000000000000000000000000060288201526037816000f0915050600073ffffffffffffffffffffffffffffffffffffffff168173ffffffffffffffffffffffffffffffffffffffff1614156109e8576040517f08c379a00000000000000000000000000000000000000000000000000000000081526004016109df90610f8e565b60405180910390fd5b919050565b6000610a006109fb84610fff565b610fce565b905082815260208101848484011115610a1857600080fd5b610a2384828561115f565b509392505050565b6000610a3e610a3984610fff565b610fce565b905082815260208101848484011115610a5657600080fd5b610a6184828561116e565b509392505050565b600081359050610a78816112d8565b92915050565b600081519050610a8d816112d8565b92915050565b600082601f830112610aa457600080fd5b8135610ab48482602086016109ed565b91505092915050565b600082601f830112610ace57600080fd5b8151610ade848260208601610a2b565b91505092915050565b600060208284031215610af957600080fd5b6000610b0784828501610a69565b91505092915050565b600060208284031215610b2257600080fd5b6000610b3084828501610a7e565b91505092915050565b60008060408385031215610b4c57600080fd5b6000610b5a85828601610a69565b925050602083013567ffffffffffffffff811115610b7757600080fd5b610b8385828601610a93565b9150509250929050565b600060208284031215610b9f57600080fd5b600082013567ffffffffffffffff811115610bb957600080fd5b610bc584828501610a93565b91505092915050565b600060208284031215610be057600080fd5b600082015167ffffffffffffffff811115610bfa57600080fd5b610c0684828501610abd565b91505092915050565b6000610c1b8383610c27565b60208301905092915050565b610c3081611116565b82525050565b610c3f81611116565b82525050565b6000610c508261103f565b610c5a8185611062565b9350610c658361102f565b8060005b83811015610c96578151610c7d8882610c0f565b9750610c8883611055565b925050600181019050610c69565b5085935050505092915050565b6000610cae8261104a565b610cb88185611073565b9350610cc881856020860161116e565b610cd1816112ba565b840191505092915050565b6000610ce78261104a565b610cf18185611084565b9350610d0181856020860161116e565b80840191505092915050565b6000610d1a602683611073565b91507f4f776e61626c653a206e6577206f776e657220697320746865207a65726f206160008301527f64647265737300000000000000000000000000000000000000000000000000006020830152604082019050919050565b6000610d80601683611073565b91507f455243313136373a20637265617465206661696c6564000000000000000000006000830152602082019050919050565b6000610dc0602083611073565b91507f4f776e61626c653a2063616c6c6572206973206e6f7420746865206f776e65726000830152602082019050919050565b6000610e00600a83611084565b91507f202d2053657269657320000000000000000000000000000000000000000000006000830152600a82019050919050565b610e44610e3f82611152565b6111ea565b82525050565b6000610e568285610cdc565b9150610e6182610df3565b9150610e6d8284610cdc565b91508190509392505050565b6000610e858285610e33565b600182019150610e958284610cdc565b91508190509392505050565b6000602082019050610eb66000830184610c36565b92915050565b6000606082019050610ed16000830186610c36565b610ede6020830185610c36565b8181036040830152610ef08184610ca3565b9050949350505050565b6000604082019050610f0f6000830185610c36565b8181036020830152610f218184610ca3565b90509392505050565b60006020820190508181036000830152610f448184610c45565b905092915050565b60006020820190508181036000830152610f668184610ca3565b905092915050565b60006020820190508181036000830152610f8781610d0d565b9050919050565b60006020820190508181036000830152610fa781610d73565b9050919050565b60006020820190508181036000830152610fc781610db3565b9050919050565b6000604051905081810181811067ffffffffffffffff82111715610ff557610ff461128b565b5b8060405250919050565b600067ffffffffffffffff82111561101a5761101961128b565b5b601f19601f8301169050602081019050919050565b6000819050602082019050919050565b600081519050919050565b600081519050919050565b6000602082019050919050565b600082825260208201905092915050565b600082825260208201905092915050565b600081905092915050565b600061109a82611148565b91506110a583611148565b9250827fffffffffffffffffffffffffffffffffffffffffffffffffffffffffffffffff038211156110da576110d961122d565b5b828201905092915050565b60006110f082611148565b91506110fb83611148565b92508261110b5761110a61125c565b5b828204905092915050565b600061112182611128565b9050919050565b600073ffffffffffffffffffffffffffffffffffffffff82169050919050565b6000819050919050565b600060ff82169050919050565b82818337600083830152505050565b60005b8381101561118c578082015181840152602081019050611171565b8381111561119b576000848401525b50505050565b60006111ac82611148565b91507fffffffffffffffffffffffffffffffffffffffffffffffffffffffffffffffff8214156111df576111de61122d565b5b600182019050919050565b60006111f5826112cb565b9050919050565b600061120782611148565b915061121283611148565b9250826112225761122161125c565b5b828206905092915050565b7f4e487b7100000000000000000000000000000000000000000000000000000000600052601160045260246000fd5b7f4e487b7100000000000000000000000000000000000000000000000000000000600052601260045260246000fd5b7f4e487b7100000000000000000000000000000000000000000000000000000000600052604160045260246000fd5b6000601f19601f8301169050919050565b60008160f81b9050919050565b6112e181611116565b81146112ec57600080fd5b5056fea26469706673582212204d662bc6cfb9f757080b8588f405984d35b6cc1cf65a21e3020afab40539320e64736f6c63430008000033",
  "immutableReferences": {},
  "source": "// SPDX-License-Identifier: UNLICENSED\npragma solidity 0.8.0;\n\nimport \"./OtoCorp.sol\";\n\ncontract OtoCorpWyoming is OtoCorp {\n\n    uint private seriesIndex = 1;\n\n    constructor(ISeries _source) OtoCorp(_source){}\n\n    function createSeries(address owner, string memory seriesName) public override {\n        ISeries newContract = ISeries(Clones.clone(address(seriesSource)));\n        string memory newSeriesName = string(abi.encodePacked(seriesName, ' - Series ', getIndex()));\n        ISeries(newContract).initialize(owner, newSeriesName);\n        seriesIndex++;\n        seriesOfMembers[owner].push(address(newContract));\n        emit NewSeriesCreated(address(newContract), newContract.owner(), newContract.getName());\n    }\n\n    function getIndex() public view returns (string memory) {\n        return uintToStr(seriesIndex);\n    }\n\n    function uintToStr(uint x) private pure returns (string memory) {\n        if (x > 0) {\n            string memory str;\n            uint y = x;\n            while (y > 0) {\n                str = string(abi.encodePacked(uint8(y % 16 + (y % 16 < 10 ? 48 : 87)), str));\n                y /= 16;\n            }\n            return str;\n        }\n        return \"0\";\n    }\n\n}",
  "sourcePath": "/Users/filipemsoccol/Documents/doiim/otoco-smart-contracts/contracts/OtoCorpWyoming.sol",
  "compiler": {
    "name": "solc",
    "version": "0.8.0+commit.c7dfd78e.Emscripten.clang"
  },
  "schemaVersion": "3.4.0",
  "updatedAt": "2021-09-29T19:40:53.655Z",
  "devdoc": {
    "kind": "dev",
    "methods": {
      "owner()": {
        "details": "Returns the address of the current owner."
      },
      "renounceOwnership()": {
        "details": "Leaves the contract without owner. It will not be possible to call `onlyOwner` functions anymore. Can only be called by the current owner. NOTE: Renouncing ownership will leave the contract without an owner, thereby removing any functionality that is only available to the owner."
      },
      "transferOwnership(address)": {
        "details": "Transfers ownership of the contract to a new account (`newOwner`). Can only be called by the current owner."
      }
    },
    "version": 1
  },
  "userdoc": {
    "kind": "user",
    "methods": {},
    "version": 1
  }
}