{
  "contractName": "OtoCorp",
  "abi": [
    {
      "inputs": [
        {
          "internalType": "contract ISeries",
          "name": "_source",
          "type": "address"
        }
      ],
      "stateMutability": "nonpayable",
      "type": "constructor"
    },
    {
      "anonymous": false,
      "inputs": [
        {
          "indexed": false,
          "internalType": "address",
          "name": "_contract",
          "type": "address"
        },
        {
          "indexed": false,
          "internalType": "address",
          "name": "_owner",
          "type": "address"
        },
        {
          "indexed": false,
          "internalType": "string",
          "name": "_name",
          "type": "string"
        }
      ],
      "name": "NewSeriesCreated",
      "type": "event"
    },
    {
      "anonymous": false,
      "inputs": [
        {
          "indexed": true,
          "internalType": "address",
          "name": "previousOwner",
          "type": "address"
        },
        {
          "indexed": true,
          "internalType": "address",
          "name": "newOwner",
          "type": "address"
        }
      ],
      "name": "OwnershipTransferred",
      "type": "event"
    },
    {
      "inputs": [],
      "name": "owner",
      "outputs": [
        {
          "internalType": "address",
          "name": "",
          "type": "address"
        }
      ],
      "stateMutability": "view",
      "type": "function"
    },
    {
      "inputs": [],
      "name": "registry",
      "outputs": [
        {
          "internalType": "address",
          "name": "",
          "type": "address"
        }
      ],
      "stateMutability": "view",
      "type": "function"
    },
    {
      "inputs": [],
      "name": "renounceOwnership",
      "outputs": [],
      "stateMutability": "nonpayable",
      "type": "function"
    },
    {
      "inputs": [],
      "name": "seriesSource",
      "outputs": [
        {
          "internalType": "contract ISeries",
          "name": "",
          "type": "address"
        }
      ],
      "stateMutability": "view",
      "type": "function"
    },
    {
      "inputs": [
        {
          "internalType": "address",
          "name": "newOwner",
          "type": "address"
        }
      ],
      "name": "transferOwnership",
      "outputs": [],
      "stateMutability": "nonpayable",
      "type": "function"
    },
    {
      "inputs": [
        {
          "internalType": "string",
          "name": "seriesName",
          "type": "string"
        }
      ],
      "name": "createSeries",
      "outputs": [],
      "stateMutability": "nonpayable",
      "type": "function"
    },
    {
      "inputs": [
        {
          "internalType": "address",
          "name": "owner",
          "type": "address"
        },
        {
          "internalType": "string",
          "name": "seriesName",
          "type": "string"
        }
      ],
      "name": "createSeriesWithOwner",
      "outputs": [],
      "stateMutability": "nonpayable",
      "type": "function"
    },
    {
      "inputs": [
        {
          "internalType": "address",
          "name": "_newRegistry",
          "type": "address"
        }
      ],
      "name": "updateRegistry",
      "outputs": [],
      "stateMutability": "nonpayable",
      "type": "function"
    },
    {
      "inputs": [
        {
          "internalType": "address",
          "name": "_newSource",
          "type": "address"
        }
      ],
      "name": "updateSeriesSource",
      "outputs": [],
      "stateMutability": "nonpayable",
      "type": "function"
    },
    {
      "inputs": [],
      "name": "mySeries",
      "outputs": [
        {
          "internalType": "address[]",
          "name": "",
          "type": "address[]"
        }
      ],
      "stateMutability": "view",
      "type": "function"
    }
  ],
  "bytecode": "0x60806040523480156200001157600080fd5b506040516200139138038062001391833981810160405281019062000037919062000182565b620000576200004b6200009f60201b60201c565b620000a760201b60201c565b80600160006101000a81548173ffffffffffffffffffffffffffffffffffffffff021916908373ffffffffffffffffffffffffffffffffffffffff1602179055505062000210565b600033905090565b60008060009054906101000a900473ffffffffffffffffffffffffffffffffffffffff169050816000806101000a81548173ffffffffffffffffffffffffffffffffffffffff021916908373ffffffffffffffffffffffffffffffffffffffff1602179055508173ffffffffffffffffffffffffffffffffffffffff168173ffffffffffffffffffffffffffffffffffffffff167f8be0079c531659141344cd1fd0a4f28419497f9722a3daafe3b4186f6b6457e060405160405180910390a35050565b6000815190506200017c81620001f6565b92915050565b6000602082840312156200019557600080fd5b6000620001a5848285016200016b565b91505092915050565b6000620001bb82620001d6565b9050919050565b6000620001cf82620001ae565b9050919050565b600073ffffffffffffffffffffffffffffffffffffffff82169050919050565b6200020181620001c2565b81146200020d57600080fd5b50565b61117180620002206000396000f3fe608060405234801561001057600080fd5b506004361061009e5760003560e01c80637b103999116100665780637b103999146101215780637f71433b1461013f5780638da5cb5b1461015b578063cb9d15d214610179578063f2fde38b146101955761009e565b8063082394c4146100a35780631a5da6c8146100c15780634b41c449146100dd5780634da69ef1146100fb578063715018a614610117575b600080fd5b6100ab6101b1565b6040516100b89190610ed9565b60405180910390f35b6100db60048036038101906100d69190610b6a565b61027c565b005b6100e561033c565b6040516100f29190610efb565b60405180910390f35b61011560048036038101906101109190610b6a565b610362565b005b61011f610422565b005b6101296104aa565b6040516101369190610e50565b60405180910390f35b61015960048036038101906101549190610b93565b6104d0565b005b610163610735565b6040516101709190610e50565b60405180910390f35b610193600480360381019061018e9190610be7565b61075e565b005b6101af60048036038101906101aa9190610b6a565b610854565b005b6060600360003373ffffffffffffffffffffffffffffffffffffffff1673ffffffffffffffffffffffffffffffffffffffff16815260200190815260200160002080548060200260200160405190810160405280929190818152602001828054801561027257602002820191906000526020600020905b8160009054906101000a900473ffffffffffffffffffffffffffffffffffffffff1673ffffffffffffffffffffffffffffffffffffffff1681526020019060010190808311610228575b5050505050905090565b61028461094c565b73ffffffffffffffffffffffffffffffffffffffff166102a2610735565b73ffffffffffffffffffffffffffffffffffffffff16146102f8576040517f08c379a00000000000000000000000000000000000000000000000000000000081526004016102ef90610f76565b60405180910390fd5b80600260006101000a81548173ffffffffffffffffffffffffffffffffffffffff021916908373ffffffffffffffffffffffffffffffffffffffff16021790555050565b600160009054906101000a900473ffffffffffffffffffffffffffffffffffffffff1681565b61036a61094c565b73ffffffffffffffffffffffffffffffffffffffff16610388610735565b73ffffffffffffffffffffffffffffffffffffffff16146103de576040517f08c379a00000000000000000000000000000000000000000000000000000000081526004016103d590610f76565b60405180910390fd5b80600160006101000a81548173ffffffffffffffffffffffffffffffffffffffff021916908373ffffffffffffffffffffffffffffffffffffffff16021790555050565b61042a61094c565b73ffffffffffffffffffffffffffffffffffffffff16610448610735565b73ffffffffffffffffffffffffffffffffffffffff161461049e576040517f08c379a000000000000000000000000000000000000000000000000000000000815260040161049590610f76565b60405180910390fd5b6104a86000610954565b565b600260009054906101000a900473ffffffffffffffffffffffffffffffffffffffff1681565b600073ffffffffffffffffffffffffffffffffffffffff16600260009054906101000a900473ffffffffffffffffffffffffffffffffffffffff1673ffffffffffffffffffffffffffffffffffffffff16148061057a57503373ffffffffffffffffffffffffffffffffffffffff16600260009054906101000a900473ffffffffffffffffffffffffffffffffffffffff1673ffffffffffffffffffffffffffffffffffffffff16145b6105b9576040517f08c379a00000000000000000000000000000000000000000000000000000000081526004016105b090610f16565b60405180910390fd5b60006105e6600160009054906101000a900473ffffffffffffffffffffffffffffffffffffffff16610a18565b90508073ffffffffffffffffffffffffffffffffffffffff1663f399e22e84846040518363ffffffff1660e01b8152600401610623929190610ea9565b600060405180830381600087803b15801561063d57600080fd5b505af1158015610651573d6000803e3d6000fd5b50505050600360008473ffffffffffffffffffffffffffffffffffffffff1673ffffffffffffffffffffffffffffffffffffffff168152602001908152602001600020819080600181540180825580915050600190039060005260206000200160009091909190916101000a81548173ffffffffffffffffffffffffffffffffffffffff021916908373ffffffffffffffffffffffffffffffffffffffff1602179055507f6b24598605265141922419533776ab91fd1eabd50c014e3f597134d690f5876c81848460405161072893929190610e6b565b60405180910390a1505050565b60008060009054906101000a900473ffffffffffffffffffffffffffffffffffffffff16905090565b600073ffffffffffffffffffffffffffffffffffffffff16600260009054906101000a900473ffffffffffffffffffffffffffffffffffffffff1673ffffffffffffffffffffffffffffffffffffffff16148061080857503373ffffffffffffffffffffffffffffffffffffffff16600260009054906101000a900473ffffffffffffffffffffffffffffffffffffffff1673ffffffffffffffffffffffffffffffffffffffff16145b610847576040517f08c379a000000000000000000000000000000000000000000000000000000000815260040161083e90610f16565b60405180910390fd5b61085133826104d0565b50565b61085c61094c565b73ffffffffffffffffffffffffffffffffffffffff1661087a610735565b73ffffffffffffffffffffffffffffffffffffffff16146108d0576040517f08c379a00000000000000000000000000000000000000000000000000000000081526004016108c790610f76565b60405180910390fd5b600073ffffffffffffffffffffffffffffffffffffffff168173ffffffffffffffffffffffffffffffffffffffff161415610940576040517f08c379a000000000000000000000000000000000000000000000000000000000815260040161093790610f36565b60405180910390fd5b61094981610954565b50565b600033905090565b60008060009054906101000a900473ffffffffffffffffffffffffffffffffffffffff169050816000806101000a81548173ffffffffffffffffffffffffffffffffffffffff021916908373ffffffffffffffffffffffffffffffffffffffff1602179055508173ffffffffffffffffffffffffffffffffffffffff168173ffffffffffffffffffffffffffffffffffffffff167f8be0079c531659141344cd1fd0a4f28419497f9722a3daafe3b4186f6b6457e060405160405180910390a35050565b60006040517f3d602d80600a3d3981f3363d3d373d3d3d363d7300000000000000000000000081528260601b60148201527f5af43d82803e903d91602b57fd5bf3000000000000000000000000000000000060288201526037816000f0915050600073ffffffffffffffffffffffffffffffffffffffff168173ffffffffffffffffffffffffffffffffffffffff161415610ae8576040517f08c379a0000000000000000000000000000000000000000000000000000000008152600401610adf90610f56565b60405180910390fd5b919050565b6000610b00610afb84610fc7565b610f96565b905082815260208101848484011115610b1857600080fd5b610b238482856110a2565b509392505050565b600081359050610b3a81611124565b92915050565b600082601f830112610b5157600080fd5b8135610b61848260208601610aed565b91505092915050565b600060208284031215610b7c57600080fd5b6000610b8a84828501610b2b565b91505092915050565b60008060408385031215610ba657600080fd5b6000610bb485828601610b2b565b925050602083013567ffffffffffffffff811115610bd157600080fd5b610bdd85828601610b40565b9150509250929050565b600060208284031215610bf957600080fd5b600082013567ffffffffffffffff811115610c1357600080fd5b610c1f84828501610b40565b91505092915050565b6000610c348383610c40565b60208301905092915050565b610c498161104c565b82525050565b610c588161104c565b82525050565b6000610c6982611007565b610c73818561102a565b9350610c7e83610ff7565b8060005b83811015610caf578151610c968882610c28565b9750610ca18361101d565b925050600181019050610c82565b5085935050505092915050565b610cc58161107e565b82525050565b6000610cd682611012565b610ce0818561103b565b9350610cf08185602086016110b1565b610cf981611113565b840191505092915050565b6000610d1160248361103b565b91507f52656769737472793a2063616c6c6572206973206e6f7420746865207265676960008301527f73747279000000000000000000000000000000000000000000000000000000006020830152604082019050919050565b6000610d7760268361103b565b91507f4f776e61626c653a206e6577206f776e657220697320746865207a65726f206160008301527f64647265737300000000000000000000000000000000000000000000000000006020830152604082019050919050565b6000610ddd60168361103b565b91507f455243313136373a20637265617465206661696c6564000000000000000000006000830152602082019050919050565b6000610e1d60208361103b565b91507f4f776e61626c653a2063616c6c6572206973206e6f7420746865206f776e65726000830152602082019050919050565b6000602082019050610e656000830184610c4f565b92915050565b6000606082019050610e806000830186610c4f565b610e8d6020830185610c4f565b8181036040830152610e9f8184610ccb565b9050949350505050565b6000604082019050610ebe6000830185610c4f565b8181036020830152610ed08184610ccb565b90509392505050565b60006020820190508181036000830152610ef38184610c5e565b905092915050565b6000602082019050610f106000830184610cbc565b92915050565b60006020820190508181036000830152610f2f81610d04565b9050919050565b60006020820190508181036000830152610f4f81610d6a565b9050919050565b60006020820190508181036000830152610f6f81610dd0565b9050919050565b60006020820190508181036000830152610f8f81610e10565b9050919050565b6000604051905081810181811067ffffffffffffffff82111715610fbd57610fbc6110e4565b5b8060405250919050565b600067ffffffffffffffff821115610fe257610fe16110e4565b5b601f19601f8301169050602081019050919050565b6000819050602082019050919050565b600081519050919050565b600081519050919050565b6000602082019050919050565b600082825260208201905092915050565b600082825260208201905092915050565b60006110578261105e565b9050919050565b600073ffffffffffffffffffffffffffffffffffffffff82169050919050565b600061108982611090565b9050919050565b600061109b8261105e565b9050919050565b82818337600083830152505050565b60005b838110156110cf5780820151818401526020810190506110b4565b838111156110de576000848401525b50505050565b7f4e487b7100000000000000000000000000000000000000000000000000000000600052604160045260246000fd5b6000601f19601f8301169050919050565b61112d8161104c565b811461113857600080fd5b5056fea26469706673582212208d0275eec13ab6b16589a027da681d0e3c7ae81131d4a60b225c9d1676f323cc64736f6c63430008000033",
  "immutableReferences": {},
  "source": "// SPDX-License-Identifier: UNLICENSED\npragma solidity 0.8.0;\n\nimport \"./utils/ISeries.sol\";\nimport \"@openzeppelin/contracts/proxy/Clones.sol\";\nimport \"@openzeppelin/contracts/access/Ownable.sol\";\nimport \"@openzeppelin/contracts/token/ERC20/IERC20.sol\";\n\ncontract OtoCorp is Ownable {\n\n    ISeries public seriesSource;\n    address public registry;\n    mapping(address=>address[]) internal seriesOfMembers;\n\n    event NewSeriesCreated(address _contract, address _owner, string _name);\n\n    constructor(ISeries _source) {\n        seriesSource = _source;\n    }\n\n    function createSeries(string memory seriesName) external onlyRegistry virtual {\n        createSeriesWithOwner(msg.sender, seriesName);\n    }\n\n    function createSeriesWithOwner(address owner, string memory seriesName) public onlyRegistry virtual {\n        ISeries newContract = ISeries(Clones.clone(address(seriesSource)));\n        ISeries(newContract).initialize(owner, seriesName);\n        seriesOfMembers[owner].push(address(newContract));\n        emit NewSeriesCreated(address(newContract), owner, seriesName);\n    }\n\n    function updateRegistry(address _newRegistry) external onlyOwner {\n        registry = _newRegistry;\n    }\n\n    function updateSeriesSource(address _newSource) external onlyOwner {\n        seriesSource = ISeries(_newSource);\n    }\n\n    function mySeries() public view returns (address[] memory) {\n        return seriesOfMembers[msg.sender];\n    }\n\n    /**\n     * @dev Throws if called by any account other than the registry in case registry is defined.\n     */\n    modifier onlyRegistry() {\n        require(registry == address(0x0) || registry == msg.sender, \"Registry: caller is not the registry\");\n        _;\n    }\n\n}",
  "sourcePath": "/Users/filipemsoccol/Documents/doiim/otoco-smart-contracts/contracts/OtoCorp.sol",
  "compiler": {
    "name": "solc",
    "version": "0.8.0+commit.c7dfd78e.Emscripten.clang"
  },
  "schemaVersion": "3.4.0",
  "updatedAt": "2021-10-14T20:00:53.909Z",
  "devdoc": {
    "kind": "dev",
    "methods": {
      "owner()": {
        "details": "Returns the address of the current owner."
      },
      "renounceOwnership()": {
        "details": "Leaves the contract without owner. It will not be possible to call `onlyOwner` functions anymore. Can only be called by the current owner. NOTE: Renouncing ownership will leave the contract without an owner, thereby removing any functionality that is only available to the owner."
      },
      "transferOwnership(address)": {
        "details": "Transfers ownership of the contract to a new account (`newOwner`). Can only be called by the current owner."
      }
    },
    "version": 1
  },
  "userdoc": {
    "kind": "user",
    "methods": {},
    "version": 1
  }
}