{
  "contractName": "OtoCorpWyoming",
  "abi": [
    {
      "inputs": [
        {
          "internalType": "contract ISeries",
          "name": "_source",
          "type": "address"
        }
      ],
      "stateMutability": "nonpayable",
      "type": "constructor"
    },
    {
      "anonymous": false,
      "inputs": [
        {
          "indexed": false,
          "internalType": "address",
          "name": "_contract",
          "type": "address"
        },
        {
          "indexed": false,
          "internalType": "address",
          "name": "_owner",
          "type": "address"
        },
        {
          "indexed": false,
          "internalType": "string",
          "name": "_name",
          "type": "string"
        }
      ],
      "name": "NewSeriesCreated",
      "type": "event"
    },
    {
      "anonymous": false,
      "inputs": [
        {
          "indexed": true,
          "internalType": "address",
          "name": "previousOwner",
          "type": "address"
        },
        {
          "indexed": true,
          "internalType": "address",
          "name": "newOwner",
          "type": "address"
        }
      ],
      "name": "OwnershipTransferred",
      "type": "event"
    },
    {
      "inputs": [
        {
          "internalType": "string",
          "name": "seriesName",
          "type": "string"
        }
      ],
      "name": "createSeries",
      "outputs": [],
      "stateMutability": "nonpayable",
      "type": "function"
    },
    {
      "inputs": [],
      "name": "mySeries",
      "outputs": [
        {
          "internalType": "address[]",
          "name": "",
          "type": "address[]"
        }
      ],
      "stateMutability": "view",
      "type": "function"
    },
    {
      "inputs": [],
      "name": "owner",
      "outputs": [
        {
          "internalType": "address",
          "name": "",
          "type": "address"
        }
      ],
      "stateMutability": "view",
      "type": "function"
    },
    {
      "inputs": [],
      "name": "registry",
      "outputs": [
        {
          "internalType": "address",
          "name": "",
          "type": "address"
        }
      ],
      "stateMutability": "view",
      "type": "function"
    },
    {
      "inputs": [],
      "name": "renounceOwnership",
      "outputs": [],
      "stateMutability": "nonpayable",
      "type": "function"
    },
    {
      "inputs": [],
      "name": "seriesSource",
      "outputs": [
        {
          "internalType": "contract ISeries",
          "name": "",
          "type": "address"
        }
      ],
      "stateMutability": "view",
      "type": "function"
    },
    {
      "inputs": [
        {
          "internalType": "address",
          "name": "newOwner",
          "type": "address"
        }
      ],
      "name": "transferOwnership",
      "outputs": [],
      "stateMutability": "nonpayable",
      "type": "function"
    },
    {
      "inputs": [
        {
          "internalType": "address",
          "name": "_newRegistry",
          "type": "address"
        }
      ],
      "name": "updateRegistry",
      "outputs": [],
      "stateMutability": "nonpayable",
      "type": "function"
    },
    {
      "inputs": [
        {
          "internalType": "address",
          "name": "_newSource",
          "type": "address"
        }
      ],
      "name": "updateSeriesSource",
      "outputs": [],
      "stateMutability": "nonpayable",
      "type": "function"
    },
    {
      "inputs": [
        {
          "internalType": "address",
          "name": "owner",
          "type": "address"
        },
        {
          "internalType": "string",
          "name": "seriesName",
          "type": "string"
        }
      ],
      "name": "createSeriesWithOwner",
      "outputs": [],
      "stateMutability": "nonpayable",
      "type": "function"
    },
    {
      "inputs": [],
      "name": "getIndex",
      "outputs": [
        {
          "internalType": "string",
          "name": "",
          "type": "string"
        }
      ],
      "stateMutability": "view",
      "type": "function"
    }
  ],
  "bytecode": "0x608060405260016004553480156200001657600080fd5b506040516200178d3803806200178d83398181016040528101906200003c919062000189565b806200005d62000051620000a660201b60201c565b620000ae60201b60201c565b80600160006101000a81548173ffffffffffffffffffffffffffffffffffffffff021916908373ffffffffffffffffffffffffffffffffffffffff160217905550505062000217565b600033905090565b60008060009054906101000a900473ffffffffffffffffffffffffffffffffffffffff169050816000806101000a81548173ffffffffffffffffffffffffffffffffffffffff021916908373ffffffffffffffffffffffffffffffffffffffff1602179055508173ffffffffffffffffffffffffffffffffffffffff168173ffffffffffffffffffffffffffffffffffffffff167f8be0079c531659141344cd1fd0a4f28419497f9722a3daafe3b4186f6b6457e060405160405180910390a35050565b6000815190506200018381620001fd565b92915050565b6000602082840312156200019c57600080fd5b6000620001ac8482850162000172565b91505092915050565b6000620001c282620001dd565b9050919050565b6000620001d682620001b5565b9050919050565b600073ffffffffffffffffffffffffffffffffffffffff82169050919050565b6200020881620001c9565b81146200021457600080fd5b50565b61156680620002276000396000f3fe608060405234801561001057600080fd5b50600436106100a95760003560e01c80637b103999116100715780637b1039991461012c5780637f71433b1461014a57806381045ead146101665780638da5cb5b14610184578063cb9d15d2146101a2578063f2fde38b146101be576100a9565b8063082394c4146100ae5780631a5da6c8146100cc5780634b41c449146100e85780634da69ef114610106578063715018a614610122575b600080fd5b6100b66101da565b6040516100c3919061110c565b60405180910390f35b6100e660048036038101906100e19190610cbe565b6102a5565b005b6100f0610365565b6040516100fd919061112e565b60405180910390f35b610120600480360381019061011b9190610cbe565b61038b565b005b61012a61044b565b005b6101346104d3565b6040516101419190611083565b60405180910390f35b610164600480360381019061015f9190610ce7565b6104f9565b005b61016e6107a4565b60405161017b9190611149565b60405180910390f35b61018c6107b6565b6040516101999190611083565b60405180910390f35b6101bc60048036038101906101b79190610d3b565b6107df565b005b6101d860048036038101906101d39190610cbe565b6108d5565b005b6060600360003373ffffffffffffffffffffffffffffffffffffffff1673ffffffffffffffffffffffffffffffffffffffff16815260200190815260200160002080548060200260200160405190810160405280929190818152602001828054801561029b57602002820191906000526020600020905b8160009054906101000a900473ffffffffffffffffffffffffffffffffffffffff1673ffffffffffffffffffffffffffffffffffffffff1681526020019060010190808311610251575b5050505050905090565b6102ad6109cd565b73ffffffffffffffffffffffffffffffffffffffff166102cb6107b6565b73ffffffffffffffffffffffffffffffffffffffff1614610321576040517f08c379a0000000000000000000000000000000000000000000000000000000008152600401610318906111cb565b60405180910390fd5b80600260006101000a81548173ffffffffffffffffffffffffffffffffffffffff021916908373ffffffffffffffffffffffffffffffffffffffff16021790555050565b600160009054906101000a900473ffffffffffffffffffffffffffffffffffffffff1681565b6103936109cd565b73ffffffffffffffffffffffffffffffffffffffff166103b16107b6565b73ffffffffffffffffffffffffffffffffffffffff1614610407576040517f08c379a00000000000000000000000000000000000000000000000000000000081526004016103fe906111cb565b60405180910390fd5b80600160006101000a81548173ffffffffffffffffffffffffffffffffffffffff021916908373ffffffffffffffffffffffffffffffffffffffff16021790555050565b6104536109cd565b73ffffffffffffffffffffffffffffffffffffffff166104716107b6565b73ffffffffffffffffffffffffffffffffffffffff16146104c7576040517f08c379a00000000000000000000000000000000000000000000000000000000081526004016104be906111cb565b60405180910390fd5b6104d160006109d5565b565b600260009054906101000a900473ffffffffffffffffffffffffffffffffffffffff1681565b600073ffffffffffffffffffffffffffffffffffffffff16600260009054906101000a900473ffffffffffffffffffffffffffffffffffffffff1673ffffffffffffffffffffffffffffffffffffffff1614806105a357503373ffffffffffffffffffffffffffffffffffffffff16600260009054906101000a900473ffffffffffffffffffffffffffffffffffffffff1673ffffffffffffffffffffffffffffffffffffffff16145b6105e2576040517f08c379a00000000000000000000000000000000000000000000000000000000081526004016105d99061116b565b60405180910390fd5b600061060f600160009054906101000a900473ffffffffffffffffffffffffffffffffffffffff16610a99565b905060008261061c6107a4565b60405160200161062d92919061102c565b60405160208183030381529060405290508173ffffffffffffffffffffffffffffffffffffffff1663f399e22e85836040518363ffffffff1660e01b81526004016106799291906110dc565b600060405180830381600087803b15801561069357600080fd5b505af11580156106a7573d6000803e3d6000fd5b50505050600460008154809291906106be906113e2565b9190505550600360008573ffffffffffffffffffffffffffffffffffffffff1673ffffffffffffffffffffffffffffffffffffffff168152602001908152602001600020829080600181540180825580915050600190039060005260206000200160009091909190916101000a81548173ffffffffffffffffffffffffffffffffffffffff021916908373ffffffffffffffffffffffffffffffffffffffff1602179055507f6b24598605265141922419533776ab91fd1eabd50c014e3f597134d690f5876c8285836040516107969392919061109e565b60405180910390a150505050565b60606107b1600454610b6e565b905090565b60008060009054906101000a900473ffffffffffffffffffffffffffffffffffffffff16905090565b600073ffffffffffffffffffffffffffffffffffffffff16600260009054906101000a900473ffffffffffffffffffffffffffffffffffffffff1673ffffffffffffffffffffffffffffffffffffffff16148061088957503373ffffffffffffffffffffffffffffffffffffffff16600260009054906101000a900473ffffffffffffffffffffffffffffffffffffffff1673ffffffffffffffffffffffffffffffffffffffff16145b6108c8576040517f08c379a00000000000000000000000000000000000000000000000000000000081526004016108bf9061116b565b60405180910390fd5b6108d233826104f9565b50565b6108dd6109cd565b73ffffffffffffffffffffffffffffffffffffffff166108fb6107b6565b73ffffffffffffffffffffffffffffffffffffffff1614610951576040517f08c379a0000000000000000000000000000000000000000000000000000000008152600401610948906111cb565b60405180910390fd5b600073ffffffffffffffffffffffffffffffffffffffff168173ffffffffffffffffffffffffffffffffffffffff1614156109c1576040517f08c379a00000000000000000000000000000000000000000000000000000000081526004016109b89061118b565b60405180910390fd5b6109ca816109d5565b50565b600033905090565b60008060009054906101000a900473ffffffffffffffffffffffffffffffffffffffff169050816000806101000a81548173ffffffffffffffffffffffffffffffffffffffff021916908373ffffffffffffffffffffffffffffffffffffffff1602179055508173ffffffffffffffffffffffffffffffffffffffff168173ffffffffffffffffffffffffffffffffffffffff167f8be0079c531659141344cd1fd0a4f28419497f9722a3daafe3b4186f6b6457e060405160405180910390a35050565b60006040517f3d602d80600a3d3981f3363d3d373d3d3d363d7300000000000000000000000081528260601b60148201527f5af43d82803e903d91602b57fd5bf3000000000000000000000000000000000060288201526037816000f0915050600073ffffffffffffffffffffffffffffffffffffffff168173ffffffffffffffffffffffffffffffffffffffff161415610b69576040517f08c379a0000000000000000000000000000000000000000000000000000000008152600401610b60906111ab565b60405180910390fd5b919050565b60606000821115610c0357606060008390505b6000811115610bf957600a601082610b99919061143d565b10610ba5576057610ba8565b60305b60ff16601082610bb8919061143d565b610bc291906112ac565b82604051602001610bd492919061105b565b6040516020818303038152906040529150601081610bf29190611302565b9050610b81565b8192505050610c3c565b6040518060400160405280600181526020017f300000000000000000000000000000000000000000000000000000000000000081525090505b919050565b6000610c54610c4f8461121c565b6111eb565b905082815260208101848484011115610c6c57600080fd5b610c778482856113a0565b509392505050565b600081359050610c8e81611519565b92915050565b600082601f830112610ca557600080fd5b8135610cb5848260208601610c41565b91505092915050565b600060208284031215610cd057600080fd5b6000610cde84828501610c7f565b91505092915050565b60008060408385031215610cfa57600080fd5b6000610d0885828601610c7f565b925050602083013567ffffffffffffffff811115610d2557600080fd5b610d3185828601610c94565b9150509250929050565b600060208284031215610d4d57600080fd5b600082013567ffffffffffffffff811115610d6757600080fd5b610d7384828501610c94565b91505092915050565b6000610d888383610d94565b60208301905092915050565b610d9d81611333565b82525050565b610dac81611333565b82525050565b6000610dbd8261125c565b610dc7818561127f565b9350610dd28361124c565b8060005b83811015610e03578151610dea8882610d7c565b9750610df583611272565b925050600181019050610dd6565b5085935050505092915050565b610e198161137c565b82525050565b6000610e2a82611267565b610e348185611290565b9350610e448185602086016113af565b610e4d816114fb565b840191505092915050565b6000610e6382611267565b610e6d81856112a1565b9350610e7d8185602086016113af565b80840191505092915050565b6000610e96602483611290565b91507f52656769737472793a2063616c6c6572206973206e6f7420746865207265676960008301527f73747279000000000000000000000000000000000000000000000000000000006020830152604082019050919050565b6000610efc602683611290565b91507f4f776e61626c653a206e6577206f776e657220697320746865207a65726f206160008301527f64647265737300000000000000000000000000000000000000000000000000006020830152604082019050919050565b6000610f62601683611290565b91507f455243313136373a20637265617465206661696c6564000000000000000000006000830152602082019050919050565b6000610fa2602083611290565b91507f4f776e61626c653a2063616c6c6572206973206e6f7420746865206f776e65726000830152602082019050919050565b6000610fe2600a836112a1565b91507f202d2053657269657320000000000000000000000000000000000000000000006000830152600a82019050919050565b6110266110218261136f565b61142b565b82525050565b60006110388285610e58565b915061104382610fd5565b915061104f8284610e58565b91508190509392505050565b60006110678285611015565b6001820191506110778284610e58565b91508190509392505050565b60006020820190506110986000830184610da3565b92915050565b60006060820190506110b36000830186610da3565b6110c06020830185610da3565b81810360408301526110d28184610e1f565b9050949350505050565b60006040820190506110f16000830185610da3565b81810360208301526111038184610e1f565b90509392505050565b600060208201905081810360008301526111268184610db2565b905092915050565b60006020820190506111436000830184610e10565b92915050565b600060208201905081810360008301526111638184610e1f565b905092915050565b6000602082019050818103600083015261118481610e89565b9050919050565b600060208201905081810360008301526111a481610eef565b9050919050565b600060208201905081810360008301526111c481610f55565b9050919050565b600060208201905081810360008301526111e481610f95565b9050919050565b6000604051905081810181811067ffffffffffffffff82111715611212576112116114cc565b5b8060405250919050565b600067ffffffffffffffff821115611237576112366114cc565b5b601f19601f8301169050602081019050919050565b6000819050602082019050919050565b600081519050919050565b600081519050919050565b6000602082019050919050565b600082825260208201905092915050565b600082825260208201905092915050565b600081905092915050565b60006112b782611365565b91506112c283611365565b9250827fffffffffffffffffffffffffffffffffffffffffffffffffffffffffffffffff038211156112f7576112f661146e565b5b828201905092915050565b600061130d82611365565b915061131883611365565b9250826113285761132761149d565b5b828204905092915050565b600061133e82611345565b9050919050565b600073ffffffffffffffffffffffffffffffffffffffff82169050919050565b6000819050919050565b600060ff82169050919050565b60006113878261138e565b9050919050565b600061139982611345565b9050919050565b82818337600083830152505050565b60005b838110156113cd5780820151818401526020810190506113b2565b838111156113dc576000848401525b50505050565b60006113ed82611365565b91507fffffffffffffffffffffffffffffffffffffffffffffffffffffffffffffffff8214156114205761141f61146e565b5b600182019050919050565b60006114368261150c565b9050919050565b600061144882611365565b915061145383611365565b9250826114635761146261149d565b5b828206905092915050565b7f4e487b7100000000000000000000000000000000000000000000000000000000600052601160045260246000fd5b7f4e487b7100000000000000000000000000000000000000000000000000000000600052601260045260246000fd5b7f4e487b7100000000000000000000000000000000000000000000000000000000600052604160045260246000fd5b6000601f19601f8301169050919050565b60008160f81b9050919050565b61152281611333565b811461152d57600080fd5b5056fea264697066735822122029ca861f4a7566885f659fa6af6be6719d2b8a5ff6923f6d1b9e873684a15f6564736f6c63430008000033",
  "immutableReferences": {},
  "source": "// SPDX-License-Identifier: UNLICENSED\npragma solidity 0.8.0;\n\nimport \"./OtoCorp.sol\";\n\ncontract OtoCorpWyoming is OtoCorp {\n\n    uint private seriesIndex = 1;\n\n    constructor(ISeries _source) OtoCorp(_source){}\n\n    function createSeriesWithOwner(address owner, string memory seriesName) public onlyRegistry override {\n        ISeries newContract = ISeries(Clones.clone(address(seriesSource)));\n        string memory newSeriesName = string(abi.encodePacked(seriesName, ' - Series ', getIndex()));\n        ISeries(newContract).initialize(owner, newSeriesName);\n        seriesIndex++;\n        seriesOfMembers[owner].push(address(newContract));\n        emit NewSeriesCreated(address(newContract), owner, newSeriesName);\n    }\n\n    function getIndex() public view returns (string memory) {\n        return uintToStr(seriesIndex);\n    }\n\n    function uintToStr(uint x) private pure returns (string memory) {\n        if (x > 0) {\n            string memory str;\n            uint y = x;\n            while (y > 0) {\n                str = string(abi.encodePacked(uint8(y % 16 + (y % 16 < 10 ? 48 : 87)), str));\n                y /= 16;\n            }\n            return str;\n        }\n        return \"0\";\n    }\n\n}",
  "sourcePath": "/Users/filipemsoccol/Documents/doiim/otoco-smart-contracts/contracts/OtoCorpWyoming.sol",
  "compiler": {
    "name": "solc",
    "version": "0.8.0+commit.c7dfd78e.Emscripten.clang"
  },
  "schemaVersion": "3.4.0",
  "updatedAt": "2021-10-14T20:00:53.931Z",
  "devdoc": {
    "kind": "dev",
    "methods": {
      "owner()": {
        "details": "Returns the address of the current owner."
      },
      "renounceOwnership()": {
        "details": "Leaves the contract without owner. It will not be possible to call `onlyOwner` functions anymore. Can only be called by the current owner. NOTE: Renouncing ownership will leave the contract without an owner, thereby removing any functionality that is only available to the owner."
      },
      "transferOwnership(address)": {
        "details": "Transfers ownership of the contract to a new account (`newOwner`). Can only be called by the current owner."
      }
    },
    "version": 1
  },
  "userdoc": {
    "kind": "user",
    "methods": {},
    "version": 1
  }
}