{
  "contractName": "OtoCorp",
  "abi": [
    {
      "inputs": [
        {
          "internalType": "contract ISeries",
          "name": "_source",
          "type": "address"
        }
      ],
      "stateMutability": "nonpayable",
      "type": "constructor"
    },
    {
      "anonymous": false,
      "inputs": [
        {
          "indexed": false,
          "internalType": "address",
          "name": "_contract",
          "type": "address"
        },
        {
          "indexed": false,
          "internalType": "address",
          "name": "_owner",
          "type": "address"
        },
        {
          "indexed": false,
          "internalType": "string",
          "name": "_name",
          "type": "string"
        }
      ],
      "name": "NewSeriesCreated",
      "type": "event"
    },
    {
      "anonymous": false,
      "inputs": [
        {
          "indexed": true,
          "internalType": "address",
          "name": "previousOwner",
          "type": "address"
        },
        {
          "indexed": true,
          "internalType": "address",
          "name": "newOwner",
          "type": "address"
        }
      ],
      "name": "OwnershipTransferred",
      "type": "event"
    },
    {
      "inputs": [],
      "name": "owner",
      "outputs": [
        {
          "internalType": "address",
          "name": "",
          "type": "address"
        }
      ],
      "stateMutability": "view",
      "type": "function",
      "constant": true
    },
    {
      "inputs": [],
      "name": "renounceOwnership",
      "outputs": [],
      "stateMutability": "nonpayable",
      "type": "function"
    },
    {
      "inputs": [
        {
          "internalType": "address",
          "name": "newOwner",
          "type": "address"
        }
      ],
      "name": "transferOwnership",
      "outputs": [],
      "stateMutability": "nonpayable",
      "type": "function"
    },
    {
      "inputs": [
        {
          "internalType": "address",
          "name": "owner",
          "type": "address"
        },
        {
          "internalType": "string",
          "name": "seriesName",
          "type": "string"
        }
      ],
      "name": "createSeries",
      "outputs": [],
      "stateMutability": "nonpayable",
      "type": "function"
    },
    {
      "inputs": [
        {
          "internalType": "string",
          "name": "seriesName",
          "type": "string"
        }
      ],
      "name": "createSeries",
      "outputs": [],
      "stateMutability": "nonpayable",
      "type": "function"
    },
    {
      "inputs": [
        {
          "internalType": "address",
          "name": "_newSource",
          "type": "address"
        }
      ],
      "name": "updateSeriesSource",
      "outputs": [],
      "stateMutability": "nonpayable",
      "type": "function"
    },
    {
      "inputs": [],
      "name": "mySeries",
      "outputs": [
        {
          "internalType": "address[]",
          "name": "",
          "type": "address[]"
        }
      ],
      "stateMutability": "view",
      "type": "function",
      "constant": true
    }
  ],
  "bytecode": "0x60806040523480156200001157600080fd5b506040516200115038038062001150833981810160405281019062000037919062000182565b620000576200004b6200009f60201b60201c565b620000a760201b60201c565b80600160006101000a81548173ffffffffffffffffffffffffffffffffffffffff021916908373ffffffffffffffffffffffffffffffffffffffff1602179055505062000210565b600033905090565b60008060009054906101000a900473ffffffffffffffffffffffffffffffffffffffff169050816000806101000a81548173ffffffffffffffffffffffffffffffffffffffff021916908373ffffffffffffffffffffffffffffffffffffffff1602179055508173ffffffffffffffffffffffffffffffffffffffff168173ffffffffffffffffffffffffffffffffffffffff167f8be0079c531659141344cd1fd0a4f28419497f9722a3daafe3b4186f6b6457e060405160405180910390a35050565b6000815190506200017c81620001f6565b92915050565b6000602082840312156200019557600080fd5b6000620001a5848285016200016b565b91505092915050565b6000620001bb82620001d6565b9050919050565b6000620001cf82620001ae565b9050919050565b600073ffffffffffffffffffffffffffffffffffffffff82169050919050565b6200020181620001c2565b81146200020d57600080fd5b50565b610f3080620002206000396000f3fe608060405234801561001057600080fd5b506004361061007d5760003560e01c80638da5cb5b1161005b5780638da5cb5b146100c65780639a1176ae146100e4578063cb9d15d214610100578063f2fde38b1461011c5761007d565b8063082394c4146100825780634da69ef1146100a0578063715018a6146100bc575b600080fd5b61008a610138565b6040516100979190610cf7565b60405180910390f35b6100ba60048036038101906100b59190610993565b610203565b005b6100c46102c3565b005b6100ce61034b565b6040516100db9190610c6e565b60405180910390f35b6100fe60048036038101906100f991906109e5565b610374565b005b61011a60048036038101906101159190610a39565b6105f3565b005b61013660048036038101906101319190610993565b610600565b005b6060600260003373ffffffffffffffffffffffffffffffffffffffff1673ffffffffffffffffffffffffffffffffffffffff1681526020019081526020016000208054806020026020016040519081016040528092919081815260200182805480156101f957602002820191906000526020600020905b8160009054906101000a900473ffffffffffffffffffffffffffffffffffffffff1673ffffffffffffffffffffffffffffffffffffffff16815260200190600101908083116101af575b5050505050905090565b61020b6106f8565b73ffffffffffffffffffffffffffffffffffffffff1661022961034b565b73ffffffffffffffffffffffffffffffffffffffff161461027f576040517f08c379a000000000000000000000000000000000000000000000000000000000815260040161027690610d59565b60405180910390fd5b80600160006101000a81548173ffffffffffffffffffffffffffffffffffffffff021916908373ffffffffffffffffffffffffffffffffffffffff16021790555050565b6102cb6106f8565b73ffffffffffffffffffffffffffffffffffffffff166102e961034b565b73ffffffffffffffffffffffffffffffffffffffff161461033f576040517f08c379a000000000000000000000000000000000000000000000000000000000815260040161033690610d59565b60405180910390fd5b6103496000610700565b565b60008060009054906101000a900473ffffffffffffffffffffffffffffffffffffffff16905090565b60006103a1600160009054906101000a900473ffffffffffffffffffffffffffffffffffffffff166107c4565b90508073ffffffffffffffffffffffffffffffffffffffff1663f399e22e84846040518363ffffffff1660e01b81526004016103de929190610cc7565b600060405180830381600087803b1580156103f857600080fd5b505af115801561040c573d6000803e3d6000fd5b50505050600260008473ffffffffffffffffffffffffffffffffffffffff1673ffffffffffffffffffffffffffffffffffffffff168152602001908152602001600020819080600181540180825580915050600190039060005260206000200160009091909190916101000a81548173ffffffffffffffffffffffffffffffffffffffff021916908373ffffffffffffffffffffffffffffffffffffffff1602179055507f6b24598605265141922419533776ab91fd1eabd50c014e3f597134d690f5876c818273ffffffffffffffffffffffffffffffffffffffff16638da5cb5b6040518163ffffffff1660e01b8152600401602060405180830381600087803b15801561051a57600080fd5b505af115801561052e573d6000803e3d6000fd5b505050506040513d601f19601f8201168201806040525081019061055291906109bc565b8373ffffffffffffffffffffffffffffffffffffffff166317d7de7c6040518163ffffffff1660e01b8152600401600060405180830381600087803b15801561059a57600080fd5b505af11580156105ae573d6000803e3d6000fd5b505050506040513d6000823e3d601f19601f820116820180604052508101906105d79190610a7a565b6040516105e693929190610c89565b60405180910390a1505050565b6105fd3382610374565b50565b6106086106f8565b73ffffffffffffffffffffffffffffffffffffffff1661062661034b565b73ffffffffffffffffffffffffffffffffffffffff161461067c576040517f08c379a000000000000000000000000000000000000000000000000000000000815260040161067390610d59565b60405180910390fd5b600073ffffffffffffffffffffffffffffffffffffffff168173ffffffffffffffffffffffffffffffffffffffff1614156106ec576040517f08c379a00000000000000000000000000000000000000000000000000000000081526004016106e390610d19565b60405180910390fd5b6106f581610700565b50565b600033905090565b60008060009054906101000a900473ffffffffffffffffffffffffffffffffffffffff169050816000806101000a81548173ffffffffffffffffffffffffffffffffffffffff021916908373ffffffffffffffffffffffffffffffffffffffff1602179055508173ffffffffffffffffffffffffffffffffffffffff168173ffffffffffffffffffffffffffffffffffffffff167f8be0079c531659141344cd1fd0a4f28419497f9722a3daafe3b4186f6b6457e060405160405180910390a35050565b60006040517f3d602d80600a3d3981f3363d3d373d3d3d363d7300000000000000000000000081528260601b60148201527f5af43d82803e903d91602b57fd5bf3000000000000000000000000000000000060288201526037816000f0915050600073ffffffffffffffffffffffffffffffffffffffff168173ffffffffffffffffffffffffffffffffffffffff161415610894576040517f08c379a000000000000000000000000000000000000000000000000000000000815260040161088b90610d39565b60405180910390fd5b919050565b60006108ac6108a784610daa565b610d79565b9050828152602081018484840111156108c457600080fd5b6108cf848285610e61565b509392505050565b60006108ea6108e584610daa565b610d79565b90508281526020810184848401111561090257600080fd5b61090d848285610e70565b509392505050565b60008135905061092481610ee3565b92915050565b60008151905061093981610ee3565b92915050565b600082601f83011261095057600080fd5b8135610960848260208601610899565b91505092915050565b600082601f83011261097a57600080fd5b815161098a8482602086016108d7565b91505092915050565b6000602082840312156109a557600080fd5b60006109b384828501610915565b91505092915050565b6000602082840312156109ce57600080fd5b60006109dc8482850161092a565b91505092915050565b600080604083850312156109f857600080fd5b6000610a0685828601610915565b925050602083013567ffffffffffffffff811115610a2357600080fd5b610a2f8582860161093f565b9150509250929050565b600060208284031215610a4b57600080fd5b600082013567ffffffffffffffff811115610a6557600080fd5b610a718482850161093f565b91505092915050565b600060208284031215610a8c57600080fd5b600082015167ffffffffffffffff811115610aa657600080fd5b610ab284828501610969565b91505092915050565b6000610ac78383610ad3565b60208301905092915050565b610adc81610e2f565b82525050565b610aeb81610e2f565b82525050565b6000610afc82610dea565b610b068185610e0d565b9350610b1183610dda565b8060005b83811015610b42578151610b298882610abb565b9750610b3483610e00565b925050600181019050610b15565b5085935050505092915050565b6000610b5a82610df5565b610b648185610e1e565b9350610b74818560208601610e70565b610b7d81610ed2565b840191505092915050565b6000610b95602683610e1e565b91507f4f776e61626c653a206e6577206f776e657220697320746865207a65726f206160008301527f64647265737300000000000000000000000000000000000000000000000000006020830152604082019050919050565b6000610bfb601683610e1e565b91507f455243313136373a20637265617465206661696c6564000000000000000000006000830152602082019050919050565b6000610c3b602083610e1e565b91507f4f776e61626c653a2063616c6c6572206973206e6f7420746865206f776e65726000830152602082019050919050565b6000602082019050610c836000830184610ae2565b92915050565b6000606082019050610c9e6000830186610ae2565b610cab6020830185610ae2565b8181036040830152610cbd8184610b4f565b9050949350505050565b6000604082019050610cdc6000830185610ae2565b8181036020830152610cee8184610b4f565b90509392505050565b60006020820190508181036000830152610d118184610af1565b905092915050565b60006020820190508181036000830152610d3281610b88565b9050919050565b60006020820190508181036000830152610d5281610bee565b9050919050565b60006020820190508181036000830152610d7281610c2e565b9050919050565b6000604051905081810181811067ffffffffffffffff82111715610da057610d9f610ea3565b5b8060405250919050565b600067ffffffffffffffff821115610dc557610dc4610ea3565b5b601f19601f8301169050602081019050919050565b6000819050602082019050919050565b600081519050919050565b600081519050919050565b6000602082019050919050565b600082825260208201905092915050565b600082825260208201905092915050565b6000610e3a82610e41565b9050919050565b600073ffffffffffffffffffffffffffffffffffffffff82169050919050565b82818337600083830152505050565b60005b83811015610e8e578082015181840152602081019050610e73565b83811115610e9d576000848401525b50505050565b7f4e487b7100000000000000000000000000000000000000000000000000000000600052604160045260246000fd5b6000601f19601f8301169050919050565b610eec81610e2f565b8114610ef757600080fd5b5056fea26469706673582212204bc25f2664dab15a7f68da2ac9a5d5ad84ba10ad17dd0a00d94966f4f64af20d64736f6c63430008000033",
  "immutableReferences": {},
  "source": "// SPDX-License-Identifier: UNLICENSED\npragma solidity 0.8.0;\n\nimport \"./utils/ISeries.sol\";\nimport \"@openzeppelin/contracts/proxy/Clones.sol\";\nimport \"@openzeppelin/contracts/access/Ownable.sol\";\nimport \"@openzeppelin/contracts/token/ERC20/IERC20.sol\";\n\n\ncontract OtoCorp is Ownable {\n\n    ISeries internal seriesSource;\n    mapping(address=>address[]) internal seriesOfMembers;\n\n    event NewSeriesCreated(address _contract, address _owner, string _name);\n\n    constructor(ISeries _source) {\n        seriesSource = _source;\n    }\n\n    function createSeries(string memory seriesName) external virtual {\n        createSeries(msg.sender, seriesName);\n    }\n\n    function createSeries(address owner, string memory seriesName) public virtual {\n        ISeries newContract = ISeries(Clones.clone(address(seriesSource)));\n        ISeries(newContract).initialize(owner, seriesName);\n        seriesOfMembers[owner].push(address(newContract));\n        emit NewSeriesCreated(address(newContract), newContract.owner(), newContract.getName());\n    }\n\n    function updateSeriesSource(address _newSource) external onlyOwner {\n        seriesSource = ISeries(_newSource);\n    }\n\n    function mySeries() public view returns (address[] memory) {\n        return seriesOfMembers[msg.sender];\n    }\n\n}",
  "sourcePath": "/Users/filipemsoccol/Documents/doiim/otoco-smart-contracts/contracts/OtoCorp.sol",
  "compiler": {
    "name": "solc",
    "version": "0.8.0+commit.c7dfd78e.Emscripten.clang"
  },
  "schemaVersion": "3.4.0",
  "updatedAt": "2021-09-29T19:40:56.226Z",
  "networkType": "ethereum",
  "devdoc": {
    "kind": "dev",
    "methods": {
      "owner()": {
        "details": "Returns the address of the current owner."
      },
      "renounceOwnership()": {
        "details": "Leaves the contract without owner. It will not be possible to call `onlyOwner` functions anymore. Can only be called by the current owner. NOTE: Renouncing ownership will leave the contract without an owner, thereby removing any functionality that is only available to the owner."
      },
      "transferOwnership(address)": {
        "details": "Transfers ownership of the contract to a new account (`newOwner`). Can only be called by the current owner."
      }
    },
    "version": 1
  },
  "userdoc": {
    "kind": "user",
    "methods": {},
    "version": 1
  }
}