{
  "contractName": "Series",
  "abi": [
    {
      "anonymous": false,
      "inputs": [
        {
          "indexed": true,
          "internalType": "address",
          "name": "previousOwner",
          "type": "address"
        },
        {
          "indexed": true,
          "internalType": "address",
          "name": "newOwner",
          "type": "address"
        }
      ],
      "name": "OwnershipTransferred",
      "type": "event"
    },
    {
      "inputs": [],
      "name": "owner",
      "outputs": [
        {
          "internalType": "address",
          "name": "",
          "type": "address"
        }
      ],
      "stateMutability": "view",
      "type": "function"
    },
    {
      "inputs": [],
      "name": "renounceOwnership",
      "outputs": [],
      "stateMutability": "nonpayable",
      "type": "function"
    },
    {
      "inputs": [
        {
          "internalType": "address",
          "name": "newOwner",
          "type": "address"
        }
      ],
      "name": "transferOwnership",
      "outputs": [],
      "stateMutability": "nonpayable",
      "type": "function"
    },
    {
      "inputs": [
        {
          "internalType": "address",
          "name": "owner_",
          "type": "address"
        },
        {
          "internalType": "string",
          "name": "name_",
          "type": "string"
        }
      ],
      "name": "initialize",
      "outputs": [],
      "stateMutability": "nonpayable",
      "type": "function"
    },
    {
      "inputs": [],
      "name": "getName",
      "outputs": [
        {
          "internalType": "string",
          "name": "",
          "type": "string"
        }
      ],
      "stateMutability": "view",
      "type": "function"
    }
  ],
  "bytecode": "0x608060405234801561001057600080fd5b50610cff806100206000396000f3fe608060405234801561001057600080fd5b50600436106100575760003560e01c806317d7de7c1461005c578063715018a61461007a5780638da5cb5b14610084578063f2fde38b146100a2578063f399e22e146100be575b600080fd5b6100646100da565b6040516100719190610a9e565b60405180910390f35b61008261016c565b005b61008c6101f4565b6040516100999190610a83565b60405180910390f35b6100bc60048036038101906100b791906108b2565b61021e565b005b6100d860048036038101906100d391906108db565b610316565b005b6060606580546100e990610c11565b80601f016020809104026020016040519081016040528092919081815260200182805461011590610c11565b80156101625780601f1061013757610100808354040283529160200191610162565b820191906000526020600020905b81548152906001019060200180831161014557829003601f168201915b5050505050905090565b610174610419565b73ffffffffffffffffffffffffffffffffffffffff166101926101f4565b73ffffffffffffffffffffffffffffffffffffffff16146101e8576040517f08c379a00000000000000000000000000000000000000000000000000000000081526004016101df90610b00565b60405180910390fd5b6101f26000610421565b565b6000603360009054906101000a900473ffffffffffffffffffffffffffffffffffffffff16905090565b610226610419565b73ffffffffffffffffffffffffffffffffffffffff166102446101f4565b73ffffffffffffffffffffffffffffffffffffffff161461029a576040517f08c379a000000000000000000000000000000000000000000000000000000000815260040161029190610b00565b60405180910390fd5b600073ffffffffffffffffffffffffffffffffffffffff168173ffffffffffffffffffffffffffffffffffffffff16141561030a576040517f08c379a000000000000000000000000000000000000000000000000000000000815260040161030190610ac0565b60405180910390fd5b61031381610421565b50565b600060019054906101000a900460ff168061033c575060008054906101000a900460ff16155b61037b576040517f08c379a000000000000000000000000000000000000000000000000000000000815260040161037290610ae0565b60405180910390fd5b60008060019054906101000a900460ff1615905080156103cb576001600060016101000a81548160ff02191690831515021790555060016000806101000a81548160ff0219169083151502179055505b6103d36104e7565b6103dc8361021e565b81606590805190602001906103f2929190610792565b5080156104145760008060016101000a81548160ff0219169083151502179055505b505050565b600033905090565b6000603360009054906101000a900473ffffffffffffffffffffffffffffffffffffffff16905081603360006101000a81548173ffffffffffffffffffffffffffffffffffffffff021916908373ffffffffffffffffffffffffffffffffffffffff1602179055508173ffffffffffffffffffffffffffffffffffffffff168173ffffffffffffffffffffffffffffffffffffffff167f8be0079c531659141344cd1fd0a4f28419497f9722a3daafe3b4186f6b6457e060405160405180910390a35050565b600060019054906101000a900460ff168061050d575060008054906101000a900460ff16155b61054c576040517f08c379a000000000000000000000000000000000000000000000000000000000815260040161054390610ae0565b60405180910390fd5b60008060019054906101000a900460ff16159050801561059c576001600060016101000a81548160ff02191690831515021790555060016000806101000a81548160ff0219169083151502179055505b6105a46105d0565b6105ac6106a9565b80156105cd5760008060016101000a81548160ff0219169083151502179055505b50565b600060019054906101000a900460ff16806105f6575060008054906101000a900460ff16155b610635576040517f08c379a000000000000000000000000000000000000000000000000000000000815260040161062c90610ae0565b60405180910390fd5b60008060019054906101000a900460ff161590508015610685576001600060016101000a81548160ff02191690831515021790555060016000806101000a81548160ff0219169083151502179055505b80156106a65760008060016101000a81548160ff0219169083151502179055505b50565b600060019054906101000a900460ff16806106cf575060008054906101000a900460ff16155b61070e576040517f08c379a000000000000000000000000000000000000000000000000000000000815260040161070590610ae0565b60405180910390fd5b60008060019054906101000a900460ff16159050801561075e576001600060016101000a81548160ff02191690831515021790555060016000806101000a81548160ff0219169083151502179055505b61076e610769610419565b610421565b801561078f5760008060016101000a81548160ff0219169083151502179055505b50565b82805461079e90610c11565b90600052602060002090601f0160209004810192826107c05760008555610807565b82601f106107d957805160ff1916838001178555610807565b82800160010185558215610807579182015b828111156108065782518255916020019190600101906107eb565b5b5090506108149190610818565b5090565b5b80821115610831576000816000905550600101610819565b5090565b600061084861084384610b51565b610b20565b90508281526020810184848401111561086057600080fd5b61086b848285610bcf565b509392505050565b60008135905061088281610cb2565b92915050565b600082601f83011261089957600080fd5b81356108a9848260208601610835565b91505092915050565b6000602082840312156108c457600080fd5b60006108d284828501610873565b91505092915050565b600080604083850312156108ee57600080fd5b60006108fc85828601610873565b925050602083013567ffffffffffffffff81111561091957600080fd5b61092585828601610888565b9150509250929050565b61093881610b9d565b82525050565b600061094982610b81565b6109538185610b8c565b9350610963818560208601610bde565b61096c81610ca1565b840191505092915050565b6000610984602683610b8c565b91507f4f776e61626c653a206e6577206f776e657220697320746865207a65726f206160008301527f64647265737300000000000000000000000000000000000000000000000000006020830152604082019050919050565b60006109ea602e83610b8c565b91507f496e697469616c697a61626c653a20636f6e747261637420697320616c72656160008301527f647920696e697469616c697a65640000000000000000000000000000000000006020830152604082019050919050565b6000610a50602083610b8c565b91507f4f776e61626c653a2063616c6c6572206973206e6f7420746865206f776e65726000830152602082019050919050565b6000602082019050610a98600083018461092f565b92915050565b60006020820190508181036000830152610ab8818461093e565b905092915050565b60006020820190508181036000830152610ad981610977565b9050919050565b60006020820190508181036000830152610af9816109dd565b9050919050565b60006020820190508181036000830152610b1981610a43565b9050919050565b6000604051905081810181811067ffffffffffffffff82111715610b4757610b46610c72565b5b8060405250919050565b600067ffffffffffffffff821115610b6c57610b6b610c72565b5b601f19601f8301169050602081019050919050565b600081519050919050565b600082825260208201905092915050565b6000610ba882610baf565b9050919050565b600073ffffffffffffffffffffffffffffffffffffffff82169050919050565b82818337600083830152505050565b60005b83811015610bfc578082015181840152602081019050610be1565b83811115610c0b576000848401525b50505050565b60006002820490506001821680610c2957607f821691505b60208210811415610c3d57610c3c610c43565b5b50919050565b7f4e487b7100000000000000000000000000000000000000000000000000000000600052602260045260246000fd5b7f4e487b7100000000000000000000000000000000000000000000000000000000600052604160045260246000fd5b6000601f19601f8301169050919050565b610cbb81610b9d565b8114610cc657600080fd5b5056fea2646970667358221220d366fc685755d9f9aff19da5920adb9945276c2b52e50df921552819ac2b2ac864736f6c63430008000033",
  "immutableReferences": {},
  "source": "// SPDX-License-Identifier: UNLICENSED\npragma solidity 0.8.0;\n\nimport \"@openzeppelin/contracts-upgradeable/access/OwnableUpgradeable.sol\";\n\ncontract Series is OwnableUpgradeable {\n\n  string private name;\n  mapping(address=>address[]) plugins;\n\n  function initialize(address owner_, string memory name_) public initializer {\n    __Ownable_init();\n    transferOwnership(owner_);\n    name = name_;\n  }\n\n  function getName() public view returns (string memory) {\n    return name;\n  }\n}\n",
  "sourcePath": "/Users/filipemsoccol/Documents/doiim/otoco-smart-contracts/contracts/Series.sol",
  "compiler": {
    "name": "solc",
    "version": "0.8.0+commit.c7dfd78e.Emscripten.clang"
  },
  "schemaVersion": "3.4.0",
  "updatedAt": "2021-10-14T20:00:53.993Z",
  "devdoc": {
    "kind": "dev",
    "methods": {
      "owner()": {
        "details": "Returns the address of the current owner."
      },
      "renounceOwnership()": {
        "details": "Leaves the contract without owner. It will not be possible to call `onlyOwner` functions anymore. Can only be called by the current owner. NOTE: Renouncing ownership will leave the contract without an owner, thereby removing any functionality that is only available to the owner."
      },
      "transferOwnership(address)": {
        "details": "Transfers ownership of the contract to a new account (`newOwner`). Can only be called by the current owner."
      }
    },
    "version": 1
  },
  "userdoc": {
    "kind": "user",
    "methods": {},
    "version": 1
  }
}