{
  "contractName": "TokenFactory",
  "abi": [
    {
      "anonymous": false,
      "inputs": [
        {
          "indexed": true,
          "internalType": "address",
          "name": "previousOwner",
          "type": "address"
        },
        {
          "indexed": true,
          "internalType": "address",
          "name": "newOwner",
          "type": "address"
        }
      ],
      "name": "OwnershipTransferred",
      "type": "event"
    },
    {
      "anonymous": false,
      "inputs": [
        {
          "indexed": true,
          "internalType": "address",
          "name": "series",
          "type": "address"
        },
        {
          "indexed": false,
          "internalType": "address",
          "name": "value",
          "type": "address"
        }
      ],
      "name": "TokenCreated",
      "type": "event"
    },
    {
      "inputs": [],
      "name": "owner",
      "outputs": [
        {
          "internalType": "address",
          "name": "",
          "type": "address"
        }
      ],
      "stateMutability": "view",
      "type": "function"
    },
    {
      "inputs": [],
      "name": "renounceOwnership",
      "outputs": [],
      "stateMutability": "nonpayable",
      "type": "function"
    },
    {
      "inputs": [
        {
          "internalType": "address",
          "name": "newOwner",
          "type": "address"
        }
      ],
      "name": "transferOwnership",
      "outputs": [],
      "stateMutability": "nonpayable",
      "type": "function"
    },
    {
      "inputs": [
        {
          "internalType": "address",
          "name": "token",
          "type": "address"
        },
        {
          "internalType": "address[]",
          "name": "previousSeries",
          "type": "address[]"
        },
        {
          "internalType": "address[]",
          "name": "previousTokens",
          "type": "address[]"
        }
      ],
      "name": "initialize",
      "outputs": [],
      "stateMutability": "nonpayable",
      "type": "function"
    },
    {
      "inputs": [
        {
          "internalType": "address",
          "name": "newAddress",
          "type": "address"
        }
      ],
      "name": "updateTokenContract",
      "outputs": [],
      "stateMutability": "nonpayable",
      "type": "function"
    },
    {
      "inputs": [
        {
          "internalType": "address",
          "name": "newAddress",
          "type": "address"
        }
      ],
      "name": "updateRegistryContract",
      "outputs": [],
      "stateMutability": "nonpayable",
      "type": "function"
    },
    {
      "inputs": [
        {
          "internalType": "uint256",
          "name": "_supply",
          "type": "uint256"
        },
        {
          "internalType": "string",
          "name": "_name",
          "type": "string"
        },
        {
          "internalType": "string",
          "name": "_symbol",
          "type": "string"
        },
        {
          "internalType": "address",
          "name": "_series",
          "type": "address"
        }
      ],
      "name": "createERC20",
      "outputs": [],
      "stateMutability": "nonpayable",
      "type": "function"
    }
  ],
  "bytecode": "0x608060405234801561001057600080fd5b5061159b806100206000396000f3fe608060405234801561001057600080fd5b506004361061007d5760003560e01c80638da5cb5b1161005b5780638da5cb5b146100c4578063989ced26146100e2578063e4f503e1146100fe578063f2fde38b1461011a5761007d565b806310bba285146100825780634a200fa51461009e578063715018a6146100ba575b600080fd5b61009c60048036038101906100979190610e13565b610136565b005b6100b860048036038101906100b39190610e65565b6101f6565b005b6100c2610398565b005b6100cc610420565b6040516100d991906111ff565b60405180910390f35b6100fc60048036038101906100f79190610e13565b61044a565b005b61011860048036038101906101139190610eee565b61050a565b005b610134600480360381019061012f9190610e13565b6107dc565b005b61013e6108d4565b73ffffffffffffffffffffffffffffffffffffffff1661015c610420565b73ffffffffffffffffffffffffffffffffffffffff16146101b2576040517f08c379a00000000000000000000000000000000000000000000000000000000081526004016101a990611304565b60405180910390fd5b80606660006101000a81548173ffffffffffffffffffffffffffffffffffffffff021916908373ffffffffffffffffffffffffffffffffffffffff16021790555050565b81819050848490501461023e576040517f08c379a000000000000000000000000000000000000000000000000000000000815260040161023590611344565b60405180910390fd5b6102466108dc565b84606560006101000a81548173ffffffffffffffffffffffffffffffffffffffff021916908373ffffffffffffffffffffffffffffffffffffffff16021790555060005b84849050811015610390578484828181106102ce577f4e487b7100000000000000000000000000000000000000000000000000000000600052603260045260246000fd5b90506020020160208101906102e39190610e13565b73ffffffffffffffffffffffffffffffffffffffff167fd5f9bdf12adf29dab0248c349842c3822d53ae2bb4f36352f301630d018c8139848484818110610353577f4e487b7100000000000000000000000000000000000000000000000000000000600052603260045260246000fd5b90506020020160208101906103689190610e13565b60405161037591906111ff565b60405180910390a280806103889061147f565b91505061028a565b505050505050565b6103a06108d4565b73ffffffffffffffffffffffffffffffffffffffff166103be610420565b73ffffffffffffffffffffffffffffffffffffffff1614610414576040517f08c379a000000000000000000000000000000000000000000000000000000000815260040161040b90611304565b60405180910390fd5b61041e60006109c5565b565b6000603360009054906101000a900473ffffffffffffffffffffffffffffffffffffffff16905090565b6104526108d4565b73ffffffffffffffffffffffffffffffffffffffff16610470610420565b73ffffffffffffffffffffffffffffffffffffffff16146104c6576040517f08c379a00000000000000000000000000000000000000000000000000000000081526004016104bd90611304565b60405180910390fd5b80606560006101000a81548173ffffffffffffffffffffffffffffffffffffffff021916908373ffffffffffffffffffffffffffffffffffffffff16021790555050565b806105136108d4565b73ffffffffffffffffffffffffffffffffffffffff168173ffffffffffffffffffffffffffffffffffffffff16638da5cb5b6040518163ffffffff1660e01b815260040160206040518083038186803b15801561056f57600080fd5b505afa158015610583573d6000803e3d6000fd5b505050506040513d601f19601f820116820180604052508101906105a79190610e3c565b73ffffffffffffffffffffffffffffffffffffffff16146105fd576040517f08c379a00000000000000000000000000000000000000000000000000000000081526004016105f490611324565b60405180910390fd5b600061062a606560009054906101000a900473ffffffffffffffffffffffffffffffffffffffff16610a8b565b90508073ffffffffffffffffffffffffffffffffffffffff1663bd3a13f6868689336040518563ffffffff1660e01b815260040161066b9493929190611251565b600060405180830381600087803b15801561068557600080fd5b505af1158015610699573d6000803e3d6000fd5b50505050600073ffffffffffffffffffffffffffffffffffffffff16606660009054906101000a900473ffffffffffffffffffffffffffffffffffffffff1673ffffffffffffffffffffffffffffffffffffffff161461078657606660009054906101000a900473ffffffffffffffffffffffffffffffffffffffff1673ffffffffffffffffffffffffffffffffffffffff166357bd2412846001846040518463ffffffff1660e01b81526004016107539392919061121a565b600060405180830381600087803b15801561076d57600080fd5b505af1158015610781573d6000803e3d6000fd5b505050505b8273ffffffffffffffffffffffffffffffffffffffff167fd5f9bdf12adf29dab0248c349842c3822d53ae2bb4f36352f301630d018c8139826040516107cc91906111ff565b60405180910390a2505050505050565b6107e46108d4565b73ffffffffffffffffffffffffffffffffffffffff16610802610420565b73ffffffffffffffffffffffffffffffffffffffff1614610858576040517f08c379a000000000000000000000000000000000000000000000000000000000815260040161084f90611304565b60405180910390fd5b600073ffffffffffffffffffffffffffffffffffffffff168173ffffffffffffffffffffffffffffffffffffffff1614156108c8576040517f08c379a00000000000000000000000000000000000000000000000000000000081526004016108bf906112a4565b60405180910390fd5b6108d1816109c5565b50565b600033905090565b600060019054906101000a900460ff1680610902575060008054906101000a900460ff16155b610941576040517f08c379a0000000000000000000000000000000000000000000000000000000008152600401610938906112e4565b60405180910390fd5b60008060019054906101000a900460ff161590508015610991576001600060016101000a81548160ff02191690831515021790555060016000806101000a81548160ff0219169083151502179055505b610999610b60565b6109a1610c39565b80156109c25760008060016101000a81548160ff0219169083151502179055505b50565b6000603360009054906101000a900473ffffffffffffffffffffffffffffffffffffffff16905081603360006101000a81548173ffffffffffffffffffffffffffffffffffffffff021916908373ffffffffffffffffffffffffffffffffffffffff1602179055508173ffffffffffffffffffffffffffffffffffffffff168173ffffffffffffffffffffffffffffffffffffffff167f8be0079c531659141344cd1fd0a4f28419497f9722a3daafe3b4186f6b6457e060405160405180910390a35050565b60006040517f3d602d80600a3d3981f3363d3d373d3d3d363d7300000000000000000000000081528260601b60148201527f5af43d82803e903d91602b57fd5bf3000000000000000000000000000000000060288201526037816000f0915050600073ffffffffffffffffffffffffffffffffffffffff168173ffffffffffffffffffffffffffffffffffffffff161415610b5b576040517f08c379a0000000000000000000000000000000000000000000000000000000008152600401610b52906112c4565b60405180910390fd5b919050565b600060019054906101000a900460ff1680610b86575060008054906101000a900460ff16155b610bc5576040517f08c379a0000000000000000000000000000000000000000000000000000000008152600401610bbc906112e4565b60405180910390fd5b60008060019054906101000a900460ff161590508015610c15576001600060016101000a81548160ff02191690831515021790555060016000806101000a81548160ff0219169083151502179055505b8015610c365760008060016101000a81548160ff0219169083151502179055505b50565b600060019054906101000a900460ff1680610c5f575060008054906101000a900460ff16155b610c9e576040517f08c379a0000000000000000000000000000000000000000000000000000000008152600401610c95906112e4565b60405180910390fd5b60008060019054906101000a900460ff161590508015610cee576001600060016101000a81548160ff02191690831515021790555060016000806101000a81548160ff0219169083151502179055505b610cfe610cf96108d4565b6109c5565b8015610d1f5760008060016101000a81548160ff0219169083151502179055505b50565b6000610d35610d3084611395565b611364565b905082815260208101848484011115610d4d57600080fd5b610d5884828561143d565b509392505050565b600081359050610d6f81611537565b92915050565b600081519050610d8481611537565b92915050565b60008083601f840112610d9c57600080fd5b8235905067ffffffffffffffff811115610db557600080fd5b602083019150836020820283011115610dcd57600080fd5b9250929050565b600082601f830112610de557600080fd5b8135610df5848260208601610d22565b91505092915050565b600081359050610e0d8161154e565b92915050565b600060208284031215610e2557600080fd5b6000610e3384828501610d60565b91505092915050565b600060208284031215610e4e57600080fd5b6000610e5c84828501610d75565b91505092915050565b600080600080600060608688031215610e7d57600080fd5b6000610e8b88828901610d60565b955050602086013567ffffffffffffffff811115610ea857600080fd5b610eb488828901610d8a565b9450945050604086013567ffffffffffffffff811115610ed357600080fd5b610edf88828901610d8a565b92509250509295509295909350565b60008060008060808587031215610f0457600080fd5b6000610f1287828801610dfe565b945050602085013567ffffffffffffffff811115610f2f57600080fd5b610f3b87828801610dd4565b935050604085013567ffffffffffffffff811115610f5857600080fd5b610f6487828801610dd4565b9250506060610f7587828801610d60565b91505092959194509250565b610f8a816113e1565b82525050565b610f998161142b565b82525050565b6000610faa826113c5565b610fb481856113d0565b9350610fc481856020860161144c565b610fcd81611526565b840191505092915050565b6000610fe56026836113d0565b91507f4f776e61626c653a206e6577206f776e657220697320746865207a65726f206160008301527f64647265737300000000000000000000000000000000000000000000000000006020830152604082019050919050565b600061104b6016836113d0565b91507f455243313136373a20637265617465206661696c6564000000000000000000006000830152602082019050919050565b600061108b602e836113d0565b91507f496e697469616c697a61626c653a20636f6e747261637420697320616c72656160008301527f647920696e697469616c697a65640000000000000000000000000000000000006020830152604082019050919050565b60006110f16020836113d0565b91507f4f776e61626c653a2063616c6c6572206973206e6f7420746865206f776e65726000830152602082019050919050565b6000611131602c836113d0565b91507f4572726f723a204f6e6c7920536572696573204f776e657220636f756c64206460008301527f65706c6f7920746f6b656e7300000000000000000000000000000000000000006020830152604082019050919050565b60006111976039836113d0565b91507f50726576696f7573207365726965732073697a6520646966666572656e74207460008301527f68616e2070726576696f757320746f6b656e732073697a652e000000000000006020830152604082019050919050565b6111f981611421565b82525050565b60006020820190506112146000830184610f81565b92915050565b600060608201905061122f6000830186610f81565b61123c6020830185610f90565b6112496040830184610f81565b949350505050565b6000608082019050818103600083015261126b8187610f9f565b9050818103602083015261127f8186610f9f565b905061128e60408301856111f0565b61129b6060830184610f81565b95945050505050565b600060208201905081810360008301526112bd81610fd8565b9050919050565b600060208201905081810360008301526112dd8161103e565b9050919050565b600060208201905081810360008301526112fd8161107e565b9050919050565b6000602082019050818103600083015261131d816110e4565b9050919050565b6000602082019050818103600083015261133d81611124565b9050919050565b6000602082019050818103600083015261135d8161118a565b9050919050565b6000604051905081810181811067ffffffffffffffff8211171561138b5761138a6114f7565b5b8060405250919050565b600067ffffffffffffffff8211156113b0576113af6114f7565b5b601f19601f8301169050602081019050919050565b600081519050919050565b600082825260208201905092915050565b60006113ec82611401565b9050919050565b600061ffff82169050919050565b600073ffffffffffffffffffffffffffffffffffffffff82169050919050565b6000819050919050565b6000611436826113f3565b9050919050565b82818337600083830152505050565b60005b8381101561146a57808201518184015260208101905061144f565b83811115611479576000848401525b50505050565b600061148a82611421565b91507fffffffffffffffffffffffffffffffffffffffffffffffffffffffffffffffff8214156114bd576114bc6114c8565b5b600182019050919050565b7f4e487b7100000000000000000000000000000000000000000000000000000000600052601160045260246000fd5b7f4e487b7100000000000000000000000000000000000000000000000000000000600052604160045260246000fd5b6000601f19601f8301169050919050565b611540816113e1565b811461154b57600080fd5b50565b61155781611421565b811461156257600080fd5b5056fea264697066735822122024f3a853d3f3e210a7b8b3342eb56c13854476746f7c274db15c86d9a294c1a264736f6c63430008000033",
  "immutableReferences": {},
  "source": "// SPDX-License-Identifier: UNLICENSED\npragma solidity 0.8.0;\n\nimport \"@openzeppelin/contracts/proxy/Clones.sol\";\nimport '@openzeppelin/contracts-upgradeable/access/OwnableUpgradeable.sol';\nimport '@openzeppelin/contracts-upgradeable/proxy/utils/Initializable.sol';\nimport \"./utils/IMasterRegistry.sol\";\n\ninterface ISeriesToken {\n    function initialize(string memory name_, string memory symbol_, uint256 _supply, address creator) external;\n}\n\ncontract TokenFactory is Initializable, OwnableUpgradeable {\n\n    event TokenCreated(address indexed series, address value);\n\n    address private _tokenContract;\n    address private _registryContract;\n\n    modifier onlySeriesOwner(address _series) {\n        require(OwnableUpgradeable(_series).owner() == _msgSender(), \"Error: Only Series Owner could deploy tokens\");\n        _;\n    }\n\n    function initialize(address token, address[] calldata previousSeries, address[] calldata previousTokens) external {\n        require(previousSeries.length == previousTokens.length, 'Previous series size different than previous tokens size.');\n        __Ownable_init();\n        _tokenContract = token;\n        for (uint i = 0; i < previousSeries.length; i++ ) {\n            emit TokenCreated(previousSeries[i], previousTokens[i]);\n        }\n    }\n\n    function updateTokenContract(address newAddress) public onlyOwner {\n        _tokenContract = newAddress;\n    }\n\n    function updateRegistryContract(address newAddress) public onlyOwner {\n        _registryContract = newAddress;\n    }\n\n    function createERC20(uint256 _supply, string memory _name, string memory _symbol, address _series) onlySeriesOwner(_series) public {\n        ISeriesToken newToken = ISeriesToken(Clones.clone(_tokenContract));\n        newToken.initialize(_name, _symbol, _supply, msg.sender);\n        if (_registryContract != address(0)){\n            IMasterRegistry(_registryContract).setRecord(_series, 1, address(newToken));\n        }\n        emit TokenCreated(_series, address(newToken));\n    }\n}",
  "sourcePath": "/Users/filipemsoccol/Documents/doiim/otoco-smart-contracts/contracts/TokenFactory.sol",
  "compiler": {
    "name": "solc",
    "version": "0.8.0+commit.c7dfd78e.Emscripten.clang"
  },
  "schemaVersion": "3.4.0",
  "updatedAt": "2021-09-29T19:40:53.709Z",
  "devdoc": {
    "kind": "dev",
    "methods": {
      "owner()": {
        "details": "Returns the address of the current owner."
      },
      "renounceOwnership()": {
        "details": "Leaves the contract without owner. It will not be possible to call `onlyOwner` functions anymore. Can only be called by the current owner. NOTE: Renouncing ownership will leave the contract without an owner, thereby removing any functionality that is only available to the owner."
      },
      "transferOwnership(address)": {
        "details": "Transfers ownership of the contract to a new account (`newOwner`). Can only be called by the current owner."
      }
    },
    "version": 1
  },
  "userdoc": {
    "kind": "user",
    "methods": {},
    "version": 1
  }
}